:100000000C94C3030C94E4030C94E4030C94E403F5
:100010000C94E4030C94E4030C94E4030C94E403C4
:100020000C94E4030C94E4030C94E4030C94E403B4
:100030000C94E4030C94E4030C94E4030C94E403A4
:100040000C94E4030C94E4030C94E4030C94E40394
:100050000C9499070C94E4030C94E4030C94E403CB
:100060000C94250F0C94E4030C94E4030C94E40327
:100070000C940A080C94E4030C94E4030C94E30E2F
:100080000C94E4030C94E4030C94E403B015B3154E
:10009000E2161516E216E216E216DB16E216E21674
:1000A0009D16A216A716B216C7160A4F144F1C4F5C
:1000B0001E4F204F224F244F264F294F6E616E0056
:1000C000696E660000407A10F35A00A0724E18095B
:1000D0000010A5D4E80000E87648170000E40B54AF
:1000E000020000CA9A3B000000E1F505000080967E
:1000F0009800000040420F000000A08601000000B0
:10010000102700000000E803000000006400000069
:1001100000000A00000000000100000000002C7632
:10012000D888DC674F0823DFC1DFAE59E1B1B7964D
:10013000E5E3E453C63AE651997696E8E6C28426AA
:10014000EB898C9B62ED407C6FFCEFBC9C9F40F286
:10015000BAA56FA5F490055A2AF75C936B6CF96702
:100160006DC11BFCE0E40D47FEF520E6B500D0EDC7
:10017000902E0300943577050080841E080000202F
:100180004E0A000000C80C333333330F986E1283CD
:100190001141EF8D2114893BE65516CFFEE6DB18A1
:1001A000D1844B381BF77C1D901DA4BBE424203266
:1001B00084725E228100C9F124ECA1E53D274E4105
:1001C0004E494E495459494E46CDCCCC3D0AD723D1
:1001D0003C17B7D13877CC2B329595E6241FB14F19
:1001E0000A000020410000C84200401C4620BCBE5E
:1001F0004CCA1B0E5AAEC59D744572726F722C208C
:10020000696E64657465726D696E61746520626F94
:100210006F7420766563746F722025640D0A004147
:10022000540024504D544B3331342C302C312C306D
:100230002C312C302C302C302C302C302C302C30DD
:100240002C302C302C302C302C302C302C302C30CE
:100250002A32380D0A0024504D544B3330302C31A3
:100260003030302C302C302C302C302A31430D0AD9
:100270000024504D544B3235312C35373630302A2E
:1002800032430D0A0052096AD53036A538BF40A363
:100290009E81F3D7FB7CE339829B2FFF87348E430B
:1002A00044C4DEE9CB547B9432A6C2233DEE4C9588
:1002B0000B42FAC34E082EA16628D924B2765BA25F
:1002C000496D8BD12572F8F66486689816D4A45CC3
:1002D000CC5D65B6926C704850FDEDB9DA5E15469E
:1002E00057A78D9D8490D8AB008CBCD30AF7E458F7
:1002F00005B8B34506D02C1E8FCA3F0F02C1AFBD53
:100300000301138A6B3A9111414F67DCEA97F2CFF0
:10031000CEF0B4E67396AC7422E7AD3585E2F937DA
:10032000E81C75DF6E47F11A711D29C5896FB76228
:100330000EAA18BE1BFC563E4BC6D279209ADBC0D3
:10034000FE78CD5AF41FDDA8338807C731B11210EB
:10035000592780EC5F60517FA919B54A0D2DE57AC8
:100360009F93C99CEFA0E03B4DAE2AF5B0C8EBBB14
:100370003C83539961172B047EBA77D626E1691422
:100380006355210C7D637C777BF26B6FC530016711
:100390002BFED7AB76CA82C97DFA5947F0ADD4A2FD
:1003A000AF9CA472C0B7FD9326363FF7CC34A5E5C9
:1003B000F171D8311504C723C31896059A07128026
:1003C000E2EB27B27509832C1A1B6E5AA0523BD65A
:1003D000B329E32F8453D100ED20FCB15B6ACBBE7F
:1003E000394A4C58CFD0EFAAFB434D338545F9022B
:1003F0007F503C9FA851A3408F929D38F5BCB6DA40
:100400002110FFF3D2CD0C13EC5F974417C4A77EE5
:100410003D645D197360814FDC222A908846EEB8F6
:1004200014DE5E0BDBE0323A0A4906245CC2D3AC30
:10043000629195E479E7C8376D8DD54EA96C56F475
:10044000EA657AAE08BA78252E1CA6B4C6E8DD7433
:100450001F4BBD8B8A703EB5664803F60E6135575B
:10046000B986C11D9EE1F8981169D98E949B1E87AB
:10047000E9CE5528DF8CA1890DBFE6426841992D50
:100480000FB054BB1678A46AD756B7C7E8DB702004
:1004900024EECEBDC1AF0F7CF52AC6874713463088
:1004A000A8019546FDD8988069AFF7448BB15BFFF2
:1004B000FFBED75C892211906B937198FD8E4379B2
:1004C000A62108B44962251EF640B340C0515A5EC9
:1004D00026AAC7B6E95D102FD65314440281E6A1BF
:1004E000D8C8FBD3E7E6CDE121D60737C3870DD5C2
:1004F000F4ED145A4505E9E3A9F8A3EFFCD9026F1E
:10050000678A4C2A8D4239FAFF81F6718722619DF4
:100510006D0C38E5FD44EABEA4A9CFDE4B604BBBB1
:10052000F670BCBFBEC67E9B28FA27A1EA8530EFD5
:10053000D4051D880439D0D4D9E599DBE6F87CA22E
:100540001F6556ACC4442229F497FF2A43A723947D
:10055000AB39A093FCC3595B6592CC0C8F7DF4EF53
:10056000FFD15D84854F7EA86FE0E62CFE14430129
:10057000A3A111084E827E53F735F23ABDBBD2D704
:100580002A91D386EB0000891112239B322446ADB9
:10059000573665BF74488CC19D5AAFD3BE6CCAE54F
:1005A000DB7EE9F7F88110080193331A22A5562C57
:1005B00047B7753E64C99C408DDBBF52AEEDDA642F
:1005C000CBFFF976E802218B30100299132667AF32
:1005D000763444BD554AADC3BC588ED19F6EEBE70F
:1005E000FA7CC8F5D983310A2091121803A7772E17
:1005F00066B5543C45CBBD42ACD99E508FEFFB66EF
:10060000EAFDD874C904428D5316619F702004A975
:10061000153227BB364CCEC5DF5EEDD7FC6888E1CE
:10062000997AABF3BA85520C4397711E60A11428D6
:1006300005B3373A26CDDE44CFDFFD56ECE99860AE
:1006400089FBBB72AA06638F7214409D512225ABB1
:10065000343006B9174EEFC7FE5CCCD5DD6AA9E38E
:10066000B8788AF19B87730E6295501C41A3352A96
:1006700024B1163807CFFF46EEDDDC54CDEBB9626E
:10068000A8F99A708B088481951AA793B62CC2A5F5
:10069000D33EE1B7F04008C919522BDB3A644EED66
:1006A0005F766DFF7C899400859BB712A6ADD2243E
:1006B000C3BFF136E0C1184809D33B5A2AE55E6C46
:1006C0004FF77D7E6C0AA583B4188691972EE3A719
:1006D000F23CC0B5D14229CB38500AD91B666FEF26
:1006E0007E744CFD5D8BB502A499961087AFF326FE
:1006F000E2BDD034C1C3394A28D11A580BE77F6E06
:100700006EF55C7C4D0CC685D71EE597F42880A15C
:10071000913AA3B3B2444ACD5B5669DF78600CE9E5
:100720001D722FFB3E8DD604C79FF516E4A99020BD
:1007300081BBB332A2C55A4C4BD7795E68E11C68C5
:100740000DF33F7A2E0EE787F61CC495D52AA1A398
:10075000B03882B193466BCF7A5448DD59622DEBA5
:100760003C700EF91F8FF706E69DD414C5ABB1227D
:10077000A0B9923083C77B4E6AD5585C49E33D6A85
:100780002CF11E780F002092D83A11241FBECFEF13
:10079000D0E4DEBFCDBF17E0A0E0B1E0E4E0F3EFCE
:1007A00000E00BBF02C007900D92A036B107D9F749
:1007B0001AE3A0E6B7E001C01D92A83DB107E1F73A
:1007C0000E94756D0C9480790C9400000C94456423
:1007D0008091D83A80FF02C082E007C082FF02C049
:1007E00083E003C083FF08C081E0809360078091AD
:1007F00026188823F9F018C01F928F9389EF91E093
:100800009F938F930E94A77687EE95E00E94BB7618
:100810000F900F900F900F9080917307811101C07E
:10082000299A0E942A10F8CF0E946754811102C0B1
:100830000E94DA1080917307811101C02A9A0895ED
:10084000789486E797E10E949C09EAECFAE386E750
:1008500097E193838283918380830E94DF060E94C5
:100860009E0F0E94051082E09CE00E946C0B26EE19
:1008700033E042E05CE0BA018DE298E10E94BE60A4
:1008800046E757E162E07CE08DE298E10E94266253
:100890000E94BE110E94764F86E797E10E94625047
:1008A0000E94F5100C94E80310924117089580916E
:1008B0003B17813019F480E00E94790880913B1742
:1008C000823019F480E00E94950880913B178330B4
:1008D00019F480E00E94B10880913B17843019F42C
:1008E00080E00E94CC0880913B17853019F480E0AD
:1008F0000E94E60880913B17863019F480E00E9440
:10090000000980913B17873019F480E00E941A0992
:1009100080913B17883019F480E00E94340980915F
:100920003B17893019F480E00E944E0980913B17F3
:100930008A3019F480E00E94680980913B178B305F
:1009400019F480E00E94820980913B178C3019F4E1
:1009500080E00C94330A08958FEF8093A41A44E149
:1009600050E060E070E0409358175093591760933F
:100970005A1770935B1746E950E060E070E04093CF
:1009800028185093291860932A1870932B184AE05E
:1009900050E060E070E04093191850931A1860938B
:1009A0001B1870931C1890EC909342178093681753
:1009B00080E8809327181092181810923017109220
:1009C000261881E08093751780939F1A9BE090937F
:1009D0003B1780933A17089580E00895089508958D
:1009E0009FEF980F9C3010F480933B1708950C9460
:1009F000B60F0C94B00F811103C01092181808950F
:100A000081E0809318180895811103C01092301767
:100A1000089581E0809330170895811103C01092EA
:100A200075170895813011F0823011F48093751795
:100A30000895811103C0109241170895813011F07B
:100A4000823011F4809341170895811103C01092F0
:100A50009F1A0895813011F0823011F480939F1A0B
:100A60000895F894F999FECF92BD81BD60BDFA9AC0
:100A70007894F99A0895F894F999FECF92BD81BDC2
:100A8000F89A789480B50895AF92BF92CF92DF9292
:100A9000EF92FF920F931F93CF93DF93CDB7DEB703
:100AA000E0970FB6F894DEBF0FBECDBFCE01019622
:100AB0007C0100E010E05C01C8010E943B05D70109
:100AC0008D937D010F5F1F4F00311105A9F77E0146
:100AD000B1E2EB0EF11C670100E110E0C8010E94D9
:100AE0003B05F60181936F010F5F1F4F0032110527
:100AF000A9F720E830E040E050E0B501CE01419692
:100B00000E940560FE01719680E18E0F2191D70150
:100B10009D917D01291304C08E13F8CF81E001C09F
:100B200080E0E0960FB6F894DEBF0FBECDBFDF9138
:100B3000CF911F910F91FF90EF90DF90CF90BF90DA
:100B4000AF900895EF92FF920F931F93CF93DF938F
:100B5000CDB7DEB760970FB6F894DEBF0FBECDBF3E
:100B6000CE0101967C0100E010E0C8010E943B0527
:100B7000F70181937F010F5F1F4F00311105A9F726
:100B80008C818093A41A2D8130E0AAE0B0E00E940D
:100B90003273609358177093591780935A17909334
:100BA0005B172E8130E00E94327360932818709397
:100BB000291880932A1890932B182F8130E00E94D7
:100BC00032736093191870931A1880931B189093BE
:100BD0001C188885809342178985809368178A85B9
:100BE0008093271881E09B85911101C080E080935C
:100BF000181881E09C85911101C080E08093301726
:100C000081E09D85911101C080E0809326188E853A
:100C1000809375178F8580939F1A888980933B17DF
:100C200060960FB6F894DEBF0FBECDBFDF91CF91B7
:100C30001F910F91FF90EF9008950F931F93CF9303
:100C4000DF931F92CDB7DEB78C0169830E943B050D
:100C50006981861741F0C8010F90DF91CF911F91F4
:100C60000F910C9431050F90DF91CF911F910F914F
:100C70000895CF93DF93C0E0D0E060E0CE010E9402
:100C80001D062196C032D105C1F7DF91CF9108959D
:100C9000CF92DF92EF92FF920F931F93CF93DF9348
:100CA000CDB7DEB7E0970FB6F894DEBF0FBECDBF6D
:100CB0008E010F5F1F4F80E2F80111928A95E9F7CC
:100CC00081E089838A838B838091A41A8C836091CD
:100CD00058177091591780915A1790915B172AE015
:100CE000C22ED12CE12CF12CA70196010E94807319
:100CF0002D83609128187091291880912A1890915D
:100D00002B18A70196010E9480732E8360911918F9
:100D100070911A1880911B1890911C18A7019601C8
:100D20000E9480732F838091421788878091681773
:100D30008987809127188A87809118188B878091DE
:100D400030178C87809126188D87809175178E8734
:100D500080919F1A8F8780913B17888B20E830E025
:100D600040E050E0B801CE0181960E940560DE01AE
:100D70005196FE01B19680E18E0F91919D938E1355
:100D8000FCCFE12CF12CF80161918F01C7010E9489
:100D90001D06FFEFEF1AFF0A80E2E816F10499F74B
:100DA000E0960FB6F894DEBF0FBECDBFDF91CF91B6
:100DB0001F910F91FF90EF90DF90CF9008951092C8
:100DC0003A171092A31A0E944405882319F00E9432
:100DD000A20504C00E94AC040E944806109241176C
:100DE0000C9457040C94480681E0809326180C94C8
:100DF00048060E94480698E088E10FB6F894A89546
:100E0000809360000FBE90936000FFCF1092261871
:100E10000E94F90681E08093A31A08951092A31A04
:100E20000895CF92DF92EF92FF920F931F93CF938B
:100E3000DF93CDB7DEB7A0970FB6F894DEBF0FBE35
:100E4000CDBFCE0101967C0100E010E06C01C8012D
:100E50000E943B05F70181937F010F5F1F4F003216
:100E60001105A9F760E270E0C6010E94C56AA0966C
:100E70000FB6F894DEBF0FBECDBFDF91CF911F91AB
:100E80000F91FF90EF90DF90CF9008959091C80060
:100E900095FFFCCF8093CE0081E090E00895809193
:100EA000C80087FFFCCF8091CE0090E00895CF93DB
:100EB000DF931F92CDB7DEB789830E942A10898104
:100EC0009091C00095FFFCCF8093C60081E090E038
:100ED0000F90DF91CF9108958091C00087FFFCCFE4
:100EE0000E942A108091C60090E00895811103C0ED
:100EF0008091C00004C0813031F48091C800881F07
:100F00008827881F089580E008958091C00087FF9A
:100F100005C00E942A108091C60008958FEF0895A1
:100F20008091C80087FF03C08091CE0008958FEFA5
:100F300008951F920F920FB60F9211240BB60F92C5
:100F40002F933F934F935F936F937F938F939F93D1
:100F5000AF93BF93EF93FF938091C00087FF47C08B
:100F60000E942A1020912C1730912D17809128175C
:100F7000909129172817390759F420912E1730918D
:100F80002F1780912A1790912B172817390769F18D
:100F900020912E1730912F1780912C1790912D179B
:100FA00001972817390709F10E948507E0912E174C
:100FB000F0912F17808320912E1730912F17809159
:100FC0002A1790912B172817390729F48091281791
:100FD0009091291705C080912E1790912F17019697
:100FE00090932F1780932E1702C00E949007FF91B5
:100FF000EF91BF91AF919F918F917F916F915F9191
:101000004F913F912F910F900BBE0F900FBE0F90FD
:101010001F9018951F920F920FB60F9211240BB6C6
:101020000F922F933F934F935F936F937F938F9381
:101030009F93AF93BF93EF93FF938091C80087FF77
:1010400045C0209123113091241180911F1190915E
:1010500020112817390759F42091251130912611B4
:1010600080912111909122112817390769F120915F
:10107000251130912611809123119091241101970F
:101080002817390709F10E949007E0912511F09186
:1010900026118083209125113091261180912111F4
:1010A000909122112817390729F480911F119091EE
:1010B000201105C0809125119091261101969093E1
:1010C00026118093251102C00E949007FF91EF9195
:1010D000BF91AF919F918F917F916F915F914F9150
:1010E0003F912F910F900BBE0F900FBE0F901F904E
:1010F000189581110CC084E08093C50081E1809334
:10110000C4008091C0008D7F8093C000089581301D
:1011100059F484E08093CD0081E18093CC008091EC
:10112000C8008D7F8093C800089581110CC082E0B3
:101130008093C50088E08093C4008091C0008D7FBB
:101140008093C0000895813059F482E08093CD00EF
:1011500088E08093CC008091C8008D7F8093C80088
:10116000089581110CC081E08093C50083E08093D5
:10117000C4008091C0008D7F8093C00008958130AD
:1011800051F48093CD0083E08093CC008091C8001F
:101190008D7F8093C800089581110BC01092C50007
:1011A00081E88093C4008091C0008D7F8093C0004F
:1011B0000895813051F41092CD0081E88093CC00E5
:1011C0008091C8008D7F8093C800089581110BC065
:1011D0001092C50086E58093C4008091C0008D7F89
:1011E0008093C0000895813051F41092CD0086E5BF
:1011F0008093CC008091C8008D7F8093C8000895B3
:1012000081110BC01092C50080E48093C4008091CE
:10121000C0008D7F8093C0000895813051F41092FA
:10122000CD0080E48093CC008091C8008D7F8093B6
:10123000C800089581110BC01092C5008AE2809306
:10124000C4008091C0008D7F8093C00008958130DC
:1012500051F41092CD008AE28093CC008091C800B6
:101260008D7F8093C800089581110BC01092C50036
:1012700080E28093C4008091C0008D7F8093C00085
:101280000895813051F41092CD0080E28093CC001B
:101290008091C8008D7F8093C800089581110BC094
:1012A0001092C50085E18093C4008091C0008D7FBD
:1012B0008093C0000895813051F41092CD0085E1F3
:1012C0008093CC008091C8008D7F8093C8000895E2
:1012D00081110BC01092C5008FE08093C4008091F3
:1012E000C0008D7F8093C0000895813051F410922A
:1012F000CD008FE08093CC008091C8008D7F8093DB
:10130000C800089581110BC01092C5008AE0809337
:10131000C4008091C0008D7F8093C000089581300B
:1013200051F41092CD008AE08093CC008091C800E7
:101330008D7F8093C8000895CF92DF92EF92FF9245
:101340000F931F93CF93DF93CDB7DEB76C970FB694
:10135000F894DEBF0FBECDBF6C018CE1D6011D92AB
:101360008A95E9F787E2E82E81E1F82E80E096E0A1
:10137000F7019C01119221503040E1F702E917E199
:1013800080E8D8011D928A95E9F780E00E948209E1
:101390001092CD008AE08093CC00E8ECF0E08081F0
:1013A0008D7F808396E09093C20088E98093C1008E
:1013B0009093CA008093C9008EE0FE013F96DF0142
:1013C000282F1D922A95E9F79E012F5F3F4FD901E3
:1013D0001D928A95E9F783E08A8B47E557E0588F9D
:1013E0004F8B4CE657E05A8F498F9EE0D601019013
:1013F0000D929A95E1F78C8386E497E09A87898726
:101400008FE497E09C878B878EE0F901D6011E96CA
:1014100001900D928A95E1F7E8E2F7E1F182E0822E
:10142000F782E682F582E48286E297E19383828303
:10143000EFE1F1E1118300831783068315830483B1
:1014400081E198E1938382836C960FB6F894DEBFB6
:101450000FBECDBFDF91CF911F910F91FF90EF9005
:10146000DF90CF90089581110BC01092C5008AE0E3
:101470008093C4008091C00082608093C000089572
:10148000813051F41092CD008AE08093CC0080919D
:10149000C80082608093C80008950F931F93CF9374
:1014A000DF93182FC091B61AD091B71A8BA1811172
:1014B0002FC08BE290E098A38F8F1E8E1D8E1C8E06
:1014C00081E08BA38CA380917307811101C02898C0
:1014D00080917307811101C0299A209128183091B9
:1014E000291840912A1850912B18ACE2B1E00E94C3
:1014F00041736056704F8F4F9F4F20E43FE140E0B3
:1015000050E00E9480733D8B2C8B81E080936607B6
:101510000FB7F8942091191830911A1840911B18A0
:1015200050911C18ACE2B1E00E9441736056704FBC
:101530008F4F9F4F20E43FE140E050E00E948073D6
:101540003F8B2E8B0FBFE091B61AF091B71A4FB7B1
:10155000F894EE55FD4F24813581808191812817C3
:10156000390739F426813781828193812817390719
:1015700079F066817781248135812150310991E0AC
:1015800080E06217730709F090E0292F382F02C01E
:1015900021E030E04FBF232BB1F6E091B61AF09175
:1015A000B71A2FB7F894EE55FD4FA681B7811C935B
:1015B00046815781828193814817590719F48081A8
:1015C000918103C0868197810196978386832FBF7F
:1015D00081E090E0DF91CF911F910F910895E0910C
:1015E000B61AF091B71A4FB7F89423AD34AD85AD64
:1015F00096AD4FBF28173907D9F0E091B61AF09190
:10160000B71A9FB7F894A3ADB4AD21AD32ADA21710
:10161000B30719F427A930AD05C0A3ADB4AD9D0142
:101620002F5F3F4F34AF23AF8C919FBF90E0089561
:101630008FEF9FEF089587B18FEF87B910929000D9
:1016400089E18093910080E194E0909397008093EA
:10165000960080E280937100559A549A08951092F2
:1016600036171092371710923817109239171092B8
:1016700071171092721710927317109274171092BC
:101680004817109247171092800089E180938100DB
:1016900085E490E1909387008093860080E28093B8
:1016A0007C00089882B112B8EEE7F0E0808181609A
:1016B000808387E080937B008DEE80937A0008958D
:1016C0001092361710923717109238171092391758
:1016D0000E942F0B0C941B0B0F931F93CF93DF9340
:1016E000CDB7DEB72E970FB6F894DEBF0FBECDBFD5
:1016F0008C018CE195E0D801FC011D923197E9F74E
:101700001093B71A0093B61A8BE290E0D801909626
:101710009C938E935F9792961C921E929197C8010C
:101720008D9696969C938E9395979C969C938E936C
:101730009B979A969C938E939997099698969C93CB
:101740008E9397970996D8969C938E93D797DE960B
:101750009C938E93DD97DC969C938E93DB978E59AA
:101760009D4FDA969C938E93D9970996F801EE5582
:10177000FD4F9183808397838683958384838E59DD
:101780009D4F9383828389E090E0019711F1D80106
:101790009B96ED91FC919C9710829B964D915C914C
:1017A0009C9797962D913C9198974217530749F42F
:1017B00095962D913C9196979C963C932E939B9752
:1017C000E4CFF80123A534A52F5F3F4F34A723A70B
:1017D000DCCF0E94600B8EE0FE013196DF01282FE6
:1017E0001D922A95E9F793E09C832DE43AE03A872D
:1017F00029872FEE3AE03C872B87D80101900D9284
:101800008A95E1F72E960FB6F894DEBF0FBECDBFD6
:10181000DF91CF911F910F910895CF93DF93FC013A
:10182000808D8111BEC0828D811190C0DF01AE55C7
:10183000BD4F14964D915C91159716962D913C9144
:1018400017974217530749F426893789232B29F420
:101850001092660713A214A251C0938D911101C07A
:10186000148E91E0938F248935892115310579F5FE
:1018700014964D915C91159716962D913C91179762
:101880004217530741F414A22689378921503109A0
:10189000378B268B20C01496CD91DC91159712962C
:1018A0002D913C911397C217D30721F42D913C91B0
:1018B000119707C01496CD91DC9115979E012F5F6B
:1018C0003F4F15963C932E931497988105C0215055
:1018D0003109358B248B9EE7918F918D9B3181F55A
:1018E00014964D915C91159716962D913C911797F2
:1018F0004217530749F41092660713A29091730799
:1019000091116FC029986DC01496CD91DC911597F7
:1019100012968D919C911397C817D90721F48D9138
:101920009C91119706C01496CD91DC911597CE012C
:10193000019615969C938E9314978881818F04C08D
:101940009E57923008F4138E81E0828F838D278D0D
:1019500030A1882379F0848D853060F0148E2B328D
:10196000310519F08BE290E002C080E390E090A393
:10197000878F15C0828D918D982321F0948D9F5F64
:10198000948F0BC0148E2B32310519F02BE230E00E
:1019900002C020E330E030A3278F880F828F80E4DD
:1019A000808F278D30A1858D968D820F931FAC017E
:1019B0005170568F458F208D2150208F9927803868
:1019C000910530F02FEF30E0B901681B790BCB01A6
:1019D000FC01E85FFE4F80814F3F510511F008F098
:1019E0008095DF91CF910895EF92FF920F931F930F
:1019F000CF93DF93FC01262F8091A31A8823E9F06F
:101A000040916207509163074F5F5F4F50936307A8
:101A1000409362078091640786171CF46093640703
:101A20000CC04036510548F01092630710926207CF
:101A300018161CF48150809364078F01015F1A4FC0
:101A4000D801ED90FC9011971297ED92FC92A1A510
:101A5000B2A587A190A5A817B90719F485A196A1E9
:101A600004C0A1A5B2A5CD01019692A781A79C9122
:101A70009202C001112466E070E00E946C73E801DC
:101A800079836883DF01AD5EBA4F4C9111963C912A
:101A90001197CF018F5E9A4FEC01488339836E0D09
:101AA0007F1D842F932F97FD019695958795860F1F
:101AB000971F8D939C93DF01AB5EBA4F41E050E0DE
:101AC0001816190614F440E050E08D919C9111977E
:101AD000880F991F842B952B11969C938E93C3A5E9
:101AE000D4A5288323A534A587A190A52817390755
:101AF00019F485A196A103C083A594A5019694A786
:101B000083A78D919C9111979C01369527953695C9
:101B100027958227932783709927EF01C95EDA4FB3
:101B2000039769F4888199818830910510F40196B2
:101B300001C001979983888312A211A205C081A1D7
:101B400092A1019692A381A3888199810196803107
:101B5000910518F49983888322C18F7099279983FE
:101B60008883EF01C75EDA4F8881880F88839C9154
:101B700097702BEF290F233010F0933011F4816010
:101B800088838881982F969589278095817096857E
:101B9000990F892B86878E37C1F523AD34AD87A980
:101BA00090AD2817390739F425AD36AD81AD92AD2A
:101BB0002817390731F125AD36AD83AD94AD0197C6
:101BC00028173907F1F0A5ADB6AD8EE78C9325AD9A
:101BD00036AD81AD92AD2817390719F487A990ADBC
:101BE00003C085AD96AD019696AF85AF81E0818B40
:101BF0009389911103C0128A838BA2C0828B81E0EA
:101C00009FC0118A128A138A9AC08F778F3711F476
:101C1000118A0FC0928980917307992321F0811155
:101C200005C0289A03C0811101C0289881898111BB
:101C300003C0128A138AB3C08685982F9F739E3380
:101C400009F4ADC080FF03C080898068808B9785D0
:101C50009F5F97878089983008F477C092E8980F43
:101C6000923010F08B3199F523AD34AD87A990AD4A
:101C70002817390739F425AD36AD81AD92AD281757
:101C80003907E1F025AD36AD83AD94AD0197281746
:101C90003907A1F0A5ADB6AD8BE18C9325AD36AD7E
:101CA00081AD92AD2817390719F487A990AD03C00B
:101CB00085AD96AD019696AF85AF09C0118A128A9F
:101CC000138A80917307811104C0289803C081E0B2
:101CD00001C080E043AD54AD27A930AD4217530792
:101CE00039F445AD56AD21AD32AD42175307F1F091
:101CF00045AD56AD23AD34AD2150310942175307E0
:101D0000A9F09089A5ADB6AD9C9345AD56AD21AD7A
:101D100032AD4217530719F427A930AD04C025ADE1
:101D200036AD2F5F3F4F36AF25AF0AC0118A128AFA
:101D3000138A80917307811102C0289801C080E046
:101D4000108A1786882321F02AC08695808B27C0A9
:101D5000DF01A65EBA4F8D919C911197816011961B
:101D60009C938E9323AD34AD87A990AD2817390786
:101D700039F425AD36AD81AD92AD2817390741F064
:101D800025AD36AD83AD94AD01972817390739F4E9
:101D900085AD96AD94AF83AF11961C921E9281A132
:101DA00092A18130914040F012A211A2128A80913A
:101DB0007307811101C02898DF91CF911F910F9176
:101DC000FF90EF9008951F920F920FB60F9211247B
:101DD0000BB60F922F933F934F935F936F937F9325
:101DE0008F939F93AF93BF93EF93FF938091660779
:101DF000882379F08091B61A9091B71A0E940D0C41
:101E000088B980917307811101C0299A5D9A5C9805
:101E100009C080917307811101C029988FE788B9A3
:101E20005D985C9AFF91EF91BF91AF919F918F91D7
:101E30007F916F915F914F913F912F910F900BBECA
:101E40000F900FBE0F901F9018951F920F920FB614
:101E50000F9211240BB60F922F933F934F935F93E2
:101E60006F937F938F939F93AF93BF93EF93FF9362
:101E700080E286BB80916607811115C06091790070
:101E800060588091B61A9091B71A0E94F40C809114
:101E900061078F5F803618F48093610704C0109249
:101EA00061070E945B120E945A1080913617909130
:101EB0003717A0913817B09139170196A11DB11DA0
:101EC0008093361790933717A0933817B09339172C
:101ED00080914717909148170196909348178093E7
:101EE0004717803C9241B8F080917117909172171A
:101EF000A0917317B09174170196A11DB11D809325
:101F0000711790937217A0937317B0937417109270
:101F1000481710924717FF91EF91BF91AF919F9192
:101F20008F917F916F915F914F913F912F910F9082
:101F30000BBE0F900FBE0F901F9018958AB1806C4A
:101F40008AB983EA8093B00081E08093B1008091E8
:101F500027188093B300809168178093B400089588
:101F60008093271880958093B30008958093681715
:101F70008093B40008952FB7F8946091361770914C
:101F8000371780913817909139172FBF08958F9286
:101F90009F92AF92BF92CF92DF92EF92FF92CF9338
:101FA000DF9300D000D0CDB7DEB79B01AC016983D1
:101FB0003A834B835C830E94BB0F6B017C01A5E0DD
:101FC000B0E029813A814B815C810E9441734B01D1
:101FD0005C010E94BB0FDC01CB018C199D09AE098D
:101FE000BF0988159905AA05BB0598F30F900F90B6
:101FF0000F900F90DF91CF91FF90EF90DF90CF90F7
:10200000BF90AF909F908F90089588EC90E0A0E0F3
:10201000B0E080936F0790937007A0937107B0931F
:10202000720784B18F6184B985B1807E85B983ECF4
:1020300084BD81E085BD8091421787BD089581E010
:102040008093730708951092730708958093421741
:1020500087BD089580917307811111C02C9A0E9449
:10206000BB0FDC01CB0188539F4FAF4FBF4F809315
:10207000670790936807A0936907B0936A0708956C
:1020800080917307811101C02C9808952C9A0E94A9
:10209000BB0FDC01CB0188539F4FAF4FBF4F8093E5
:1020A000670790936807A0936907B0936A0708953C
:1020B0002C9808950F931F9380916B0790916C0754
:1020C000A0916D07B0916E0740916F075091700716
:1020D000609171077091720784179507A607B7077B
:1020E000D4F00E94BB0F0091670710916807209100
:1020F000690730916A07061717072807390714F48C
:102100000E94401010926B0710926C0710926D079E
:1021100010926E070BC00196A11DB11D80936B0735
:1021200090936C07A0936D07B0936E071F910F916A
:102130000895CF9381E0809373072A980E945810E6
:102140002998289868EC70E080E090E00E94C70F22
:10215000C2E02A9A62E370E080E090E00E94C70F3C
:102160002A980E94461062E370E080E090E00E94AE
:10217000C70F0E945810289A62E370E080E090E058
:102180000E94C70F2898299A62E370E080E090E0EF
:102190000E94C70F299862E370E080E090E00E94FF
:1021A000C70FC13011F0C1E0D4CF2A9A1092730743
:1021B000CF9108950E942A1080917307811101C068
:1021C0002A9864EF71E080E090E00E94C70F0E94BF
:1021D000401080917307811101C02A9A64EF71E069
:1021E00080E090E00E94C70FE5CF81B1866081B9A1
:1021F0000E94DB4F811103C081B1886181B90895CC
:1022000082B186958170089582B182FB882780F91A
:1022100008950E94DB4F811105C082B183FB88279E
:1022200080F9089580E008950E94DB4F811104C079
:1022300082B182958170089580E00895119A089581
:10224000129A08950E94DB4F811101C0139A0895DC
:102250000E94DB4F811101C0149A089511980895CE
:10226000129808950E94DB4F811101C0139A0895BE
:102270000E94DB4F811101C0149A08950E94DB4F28
:10228000811107C00E94001181110C942E110C9431
:102290001E1108950E94DB4F811107C00E94041196
:1022A00081110C9430110C94201108950E94091191
:1022B00081110C9432110C9422110E94141181117D
:1022C0000C9438110C9428118F929F92AF92BF9268
:1022D000CF92DF92EF92FF920F931F939B01AC017D
:1022E0008FB7F894C0903617D0903717E090381712
:1022F000F09039178FBFA5E0B0E00E9441732FB76F
:10230000F8948090361790903717A0903817B090B7
:1023100039172FBF950184010C191D092E093F099A
:10232000061717072807390750F31F910F91FF90E1
:10233000EF90DF90CF90BF90AF909F908F900895D7
:10234000CF93C2E080917307811101C02A986AEF90
:1023500070E080E090E00E94641180917307811129
:1023600001C02A9A64E170E080E090E00E9464116C
:10237000C13011F0C1E0E6CFCF91089584B1806AF9
:1023800084B9269881E58CBD0E9A0F98179A089506
:102390000E94A0110E94C25481110C94DA10089579
:1023A000CF938130D1F4C4E080917307811101C0D3
:1023B0002A9861E470E080E090E00E9464118091CE
:1023C0007307811101C02A9A6EE170E080E090E00D
:1023D0000E946411C15041F705C0811103C0CF9123
:1023E0000C94A011CF91089581E00E94D0110C941B
:1023F0002557809100018695817091E08927089585
:1024000081E090910001911180E00895809178071A
:1024100008950E94F911882389F041E062EB76E08B
:1024200088EB9AE10E940F35811104C081E080930E
:10243000780702C01092780780917807089540E0ED
:1024400062EB76E080E090E00E940F35811104C0DD
:102450001092780781E0089580E008950E940912A3
:1024600081110C94F41108950E941F1281110C9493
:10247000C811089580917707882321F0109277077B
:102480000E942E1280917607882321F01092760701
:102490000E94341280917507882321F010927507ED
:1024A0000E94F41180917407882321F01092740720
:1024B0000C94C8110895CF93809179078F5F809312
:1024C00079070E94F71680E00E94CD1480930001E6
:1024D0008091790762E30E944C73911116C01092AB
:1024E0007907C0917807C11107C00E94F9118823AC
:1024F00019F081E0809377070E94F911811105C0DE
:10250000CC2319F081E080937607CF9108950F9343
:102510001F93CF93DF93CDB7DEB760970FB6F894D4
:10252000DEBF0FBECDBF2FB7F89480917117909189
:102530007217A0917317B09174172FBF8D879E8764
:10254000AF87B88BBE016F5F7F4FCE010D960E94A3
:10255000106B4B81552747FD5095652F752F8BE0EC
:10256000440F551F661F771F8A95D1F78C819927D5
:1025700087FD9095A92FB92FDC0199278827482B33
:10258000592B6A2B7B2B8A81992787FD9095A92F40
:10259000B92F35E0880F991FAA1FBB1F3A95D1F7B5
:1025A000482B592B6A2B7B2B8981992787FD909586
:1025B000A92FB92FB695A79597958795482B592B95
:1025C0006A2B7B2B8F819885805D9740AA2797FD8A
:1025D000A095BA2FF9E1880F991FAA1FBB1FFA9582
:1025E000D1F7482B592B6A2B7B2B8E818F5F992734
:1025F00087FD9095A92FB92F15E1880F991FAA1F64
:10260000BB1F1A95D1F78A019B01082B192B2A2B86
:102610003B2BC901B80160960FB6F894DEBF0FBE20
:10262000CDBFDF91CF911F910F9108958EBD0DB455
:1026300007FEFDCF8EB50895169A8FEF0C941613F2
:102640000F931F93CF93DF93EC018B0184E1809371
:102650007B078FEF0E9416138F3F29F480917B0731
:102660008111F7CF1EC08E3FE1F48FEF8EBD0DB408
:1026700007FEFDCF9EB598838EBD0DB407FEFDCF3E
:1026800022969EB5FE01319790830250110971F791
:102690008FEF0E9416138FEF0E94161381E090E0D7
:1026A00002C080E090E0DF91CF911F910F910895DB
:1026B00082E380937A078FEF0E941613282F8F3FB3
:1026C00021F080917A078111F6CF81E090E02F3FD1
:1026D00011F080E090E00895CF93DF9300D0CDB764
:1026E000DEB716988FEF0E9416130E9458130097BA
:1026F00039F489839A830E941C1389819A8102C0CC
:1027000081E090E00F900F90DF91CF910895FF92BC
:102710000F931F93CF93DF93C82FD42F152F062F1E
:10272000F72E87FF09C040E050E0BA0187E30E941E
:1027300087138230A0F5CF77CC3099F48C2F80644A
:102740000E9416138F2D0E941613802F0E941613BD
:10275000812F0E9416138D2F0E941613CC2369F02F
:1027600008C00E941C130E946C13892B39F78FEF4D
:1027700016C0C83021F081E003C085E901C087E8B8
:102780000E941613CC3019F48FEF0E941613CAE082
:102790008FEF0E94161387FF02C0C150C9F7DF9167
:1027A000CF911F910F91FF9008951F93CF93DF93C7
:1027B000EC01162F0E945813009759F1812F0E94A7
:1027C00016131D3F21F1CE019E5F28812EBD0DB451
:1027D00007FEFDCF2296FE01319720812EBD0DB45C
:1027E00007FEFDCFC817D90781F78FEF0E94161398
:1027F0008FEF0E9416138FEF0E9416138F7131E036
:1028000020E0853009F030E0832F922F02C081E074
:1028100090E0DF91CF911F910895DF92EF92FF92A8
:102820000F931F93CF93DF9300D000D0CDB7DEB7C7
:102830008111A6C01CBC8091010181FD9EC084B1A4
:10284000806A84B9269881E58CBD82E58CBD1AE04A
:102850008FEF0E9416131150D9F740E050E0BA01F3
:1028600080E00E948713813009F075C084E6809370
:102870007B074AEA51E060E070E088E00E9487133D
:10288000813009F040C08E010F5F1F4F780184E056
:10289000D82ED00E8FEF0E941613F70181937F017F
:1028A000DE12F8CF8B81813009F055C08C818A3AD5
:1028B00009F051C080917B07811106C080917B0790
:1028C000882309F448C00AC040E050E060E070E4AA
:1028D00089EA0E9487138111EDCFF0CF40E050E0EC
:1028E000BA018AE30E948713811135C08FEF0E94DD
:1028F0001613F80181938F01DE12F8CF898186FDCE
:102900002CC014E02BC040E050E0BA0189EA0E94DC
:102910008713823018F011E001E002C012E009EAEA
:1029200080917B07811105C080917B07882399F0F6
:1029300009C040E050E0BA01802F0E948713811146
:10294000EFCFF2CF40E052E060E070E080E10E9423
:102950008713882319F010E001C01CE010937C0756
:102960000E941C13112341F0809101018E7F8093FE
:10297000010180E58CBD01C01CBC8091010101C03A
:1029800081E00F900F900F900F90DF91CF911F91EA
:102990000F91FF90EF90DF900895811103C0809117
:1029A0000101089581E00895EF92FF920F931F9324
:1029B000CF937B01BA01A901811138C0011511051E
:1029C000A9F18091010180FD33C080917C0783FDD6
:1029D00007C089E0440F551F661F771F8A95D1F7FE
:1029E0000230110510F4C1E101C0C2E18C2F0E9438
:1029F0008713811114C060E072E0C7010E942013A8
:102A0000892B29F08EEFF81A01501109A1F7C23174
:102A100031F440E050E0BA018CE00E9487130E943C
:102A20001C1381E0012B29F480E003C084E001C085
:102A300083E0CF911F910F91FF90EF900895CF9277
:102A4000DF92EF92FF920F931F93CF93DF93EB01EF
:102A500069017A01811156C00115110509F452C0AE
:102A60008091010180FD50C08091010182FD4EC026
:102A700080917C0783FD07C099E0CC0CDD1CEE1C27
:102A8000FF1C9A95D1F70130110599F4B701A60101
:102A900088E10E94871381112EC06EEFCE010E9443
:102AA000D51331E020E0892B09F030E0032F122FFD
:102AB00022C0867031F0A80160E070E087E90E94D2
:102AC0008713B701A60189E10E948713811113C002
:102AD0006CEFCE010E94D513892B21F0DE5F0150EF
:102AE0001109B1F76DEF80E090E00E94D513892BBA
:102AF00011F401E010E00E941C1381E0012B39F475
:102B000080E005C084E003C083E001C082E0DF9183
:102B1000CF911F910F91FF90EF90DF90CF9008958C
:102B2000EF92FF920F931F93CF93DF93CDB7DEB752
:102B300060970FB6F894DEBF0FBECDBF811147C1BD
:102B40008091010180FD45C17A01862F90E08F3090
:102B5000910508F037C1FC01EA5BFF4F0C9401744A
:102B60000E946C1324C140E050E0BA0189E00E9449
:102B70008713882311F011E026C160E170E0CE01D7
:102B800001960E942013892BB1F399819295969515
:102B900096959370888549852A859130E1F48F73E5
:102BA00090E0A0E0B0E0DC01992788270196A11D04
:102BB000B11D50E0542F4427BA01620F711D860FDA
:102BC000971FA11DB11DFAE0880F991FAA1FBB1FF7
:102BD000FA95D1F7ABC04295469546954370F4E01F
:102BE0008F9FC0011124840F911D01964F81437066
:102BF00050E0542F4427550F550F840F951FA0E028
:102C0000B0E03E81432F4F703B85331F3327331F86
:102C1000340F2370220F230F275004C0880F991FF1
:102C2000AA1FBB1F2A95D2F781C010917C0740E0F4
:102C300050E0BA0112FF2BC08DE80E94871381116A
:102C40009ACF8FEF0E94161360E170E0CE010196DB
:102C50000E942013892B09F48ECF10E38FEF0E947E
:102C600016131150D9F72B8522952F7080E190E033
:102C7000A0E0B0E004C0880F991FAA1FBB1F2A95CF
:102C8000D2F7F70180839183A283B3839CC089E04C
:102C90000E94871381116FCF60E170E0CE01019631
:102CA0000E942013892B09F466CF8B852C8511FF98
:102CB0001FC0221F2227221F022F10E00F5F1F4F6D
:102CC0008F73080F111D080F111D8E858295869533
:102CD00086958370815002C0000F111F8A95E2F71C
:102CE00020E030E0F701008311832283338323C087
:102CF000922F937022952695277030E0F8E09F9FE1
:102D0000200D311D11242F5F3F4F8C7790E095955A
:102D10008795959587950196289FA001299F500D2D
:102D2000389F500D1124CA01A0E0B0E0F701808364
:102D30009183A283B38310E046C080917C07FA019F
:102D40008083F9CF40E050E0BA0189E004C040E060
:102D500050E0BA018AE00E94871381110CCF60E134
:102D600070E022C040E050E0BA018AE30E9487137D
:102D7000811101CF87010C5F1F4F8FEF0E94161347
:102D8000F70181937F01E017F107B9F7D4CF40E055
:102D900050E0BA018DE80E9487138111ECCE8FEFCD
:102DA0000E94161360E470E0C7010E94201311E036
:102DB000892B49F0C0CF1CBC8091010181608093B8
:102DC0000101B9CF14E00E941C13812F03C084E0DD
:102DD00001C083E060960FB6F894DEBF0FBECDBF92
:102DE000DF91CF911F910F91FF90EF900895809107
:102DF0007B07882319F0815080937B0780917A07A5
:102E0000882319F0815080937A0790910101892FCE
:102E10008B7F079B03C0892F897F01C083608093CC
:102E200001010895FC016381862F90E0A0E0B0E0ED
:102E3000BA2FA92F982F88272281822BBA2FA92F4A
:102E4000982F88272181822BBA2FA92F982F882786
:102E50002081BC01CD01622B08950F93FC012781D5
:102E600030E040E050E060E070E080E090E008E0BA
:102E70000E940A74A6812A2B0E940A74A5812A2B1B
:102E80000E940A74A4812A2B0E940A74A3812A2B0F
:102E90000E940A74A2812A2B0E940A74A1812A2B03
:102EA0000E940A74E0812E2B0F910895FC0140834B
:102EB00051836283738308950F931F93CF93DF939E
:102EC000FC01D22FC32FB42FA52FCB010083980173
:102ED0004D2F5C2F6B2F7A2F08E00E9425742183E1
:102EE0000E94257422830E94257423830E942574E6
:102EF00024830E94257425830E94257426830E94C2
:102F000025742783DF91CF911F910F910895480F6A
:102F1000591FFC016193CF01E417F507D1F708951C
:102F2000DC01FB012D91819130E0B901681B710931
:102F3000CB014150510911F00097A1F308950F936F
:102F40001F93FC019A01AB0122503109410951093B
:102F50008789908DA18DB28D0297A109B10928179B
:102F600039074A075B0768F4A185B2850E9441735F
:102F700003A514A525A536A5600F711F821F931FF9
:102F800003C060E070E0CB011F910F910895FC0138
:102F90009C01255F3F4F80E0982F90FB979597F914
:102FA0008191890FE217F307B9F70895CF93DF9363
:102FB000FC01418150E04F5F5F4F65E0440F551FBA
:102FC0006A95E1F780E090E060E070E062307105C2
:102FD000A1F0DC01A170BB2780FF02C0A0E0B0E837
:102FE000EF01C60FD71F288196958795EC01C20F78
:102FF000D11DCE018A0F9B1F02C063E070E06F5F9E
:103000007F4F6417750710F3DF91CF910895CF9329
:10301000DF93DC01ED91FC9111973097D1F09F0186
:103020002F5F3F4FE90121978881803278F08A3302
:10303000B9F7908180ED890F8A3058F43296E21703
:10304000F30739F4903329F42D933C9380E090E01A
:1030500002C08FEF9FEFDF91CF9108950F931F93E1
:10306000CF93DF93EC018B01892BF1F0E881F9819B
:103070003097D1F080818823B9F02A813B81858106
:1030800096812817390781F481810E94CD1480FD33
:103090000BC02881398180E0F80131832083DF91E2
:1030A000CF911F910F91089589E020E030E0F4CF97
:1030B0000F931F93CF93DF93EA01890141E653E019
:1030C0000E948E4E8F3F910541F038F0023011057D
:1030D00058F09883898382E008C0009729F0012B7B
:1030E00019F0888381E001C080E0DF91CF911F91CA
:1030F0000F9108952F923F924F925F926F927F921D
:103100008F929F92AF92BF92CF92DF92EF92FF92F7
:103110000F931F93CF93DF93DC018D909C901197B9
:10312000FB01128E9E960D911D912D913C91D19790
:10313000012B022B032B09F4A1C1EB018C01D4015B
:103140008C91843009F09AC01D96ED90FC901E97EA
:10315000A12CB12CB0E4CB2ED12C00E010E080E00B
:1031600090E088248A94912CD70193962C9130E09A
:10317000A216B30608F044C0B0E6CB16B2E0DB06F8
:1031800008F043C096012F713327232B19F4E2E096
:10319000CE0ED11CF701EC0DFD1D4180512C542C9D
:1031A00044242081422AF2E0CF0ED11C2FEFA21A34
:1031B000B20A009729F49201385D21153840F0F0E9
:1031C000A801465E5F4F4C0F5D1F612C712CA0E083
:1031D000B0E0DC0199278827BC01CD01642975295D
:1031E000862997299401201B310B0E94581890E0E2
:1031F000009759F0080F191F412C512CC201B4CF70
:10320000892B19F40115110521F48FE38A8F01E050
:1032100010E0FE01E00FF11F128E1D86F701848180
:103220008C8784FD05C0C701C8960E942D1708C071
:1032300020E030E040E050E060E070E080E090E0CE
:10324000288339834A835B836C837D838E839F834A
:10325000D7011D968C911D9790E0982F88271C967A
:103260002C911C97822B9B878A871F968C911F9786
:1032700090E0982F88271E962C91FDC0F801E05C05
:10328000FF4F80819181A281B3818F3F9F4FAF4FCC
:10329000BF4F09F44AC0A12CB12CC12CD12CE12C78
:1032A000F12C66246A94712CD4011B96ED91FC914B
:1032B0001C97EA0DFB1D80819181009771F1C1146B
:1032C000D10429F49C01385D21153840F8F0A7019C
:1032D000465E5F4F4C0F5D1FA0E0B0E01601412C31
:1032E000512C210133242224BC01CD0162297329F0
:1032F0008429952993012E193F090E94581890E0BE
:10330000009749F0E80EF91E80E090E022E0A20E5E
:10331000B11C6C01C9CFE12CF12CCD2811F0E12CAE
:10332000F12CFE01EE0DFF1D128E20E030E080E05A
:1033300090E06EE2AC014F5F5F4FD801D296ED9105
:10334000FC91D397E80FF91F808190E080329105BE
:10335000B9F08530910511F485EE90E049305105C2
:1033600049F42C30310530F4FE01E20FF31F65877C
:103370002F5F3F4FFE01E20FF31F85872F5F3F4F07
:10338000CA014B305105B1F6FE01E20FF31F15865D
:103390008A8D811142C0232B31F0BE01665E7F4FC2
:1033A000E0E0F0E010C08FE38A8FE1E0F0E029C0B8
:1033B00090E09C01215431092A31310558F0DB019C
:1033C0008D93BD013196CB010D97DC018C9181115C
:1033D000EFCF17C0D801D2962D913C91D397D90148
:1033E0001C962C9130E0E930F10518F448E050E0EB
:1033F00002C040E150E024233523232B01F38096C3
:10340000DECFEC0FFD1F128ED801D296ED91FC910C
:10341000D3978485811101C01D86D801D296ED9184
:10342000FC91D39783858C87D2968D919C91D3976D
:103430004C960E9412174B015C0168839982AA8204
:10344000BB821C821D821E821F82D801D296ED9102
:10345000FC91D397878990E0982F88272689822B23
:103460009B878A87D296ED91FC91D397818D90E0CE
:10347000982F8827208D822B99878887DF91CF917D
:103480001F910F91FF90EF90DF90CF90BF90AF9082
:103490009F908F907F906F905F904F903F902F9074
:1034A00008950F931F93CF93DF93EC01E881F98187
:1034B0008F010F5F1F4F6081862F90E0009731F0E2
:1034C00061E673E00E94C14E009731F019830883D2
:1034D000BC0180E090E003C06FEF7FEFCB01DF9194
:1034E000CF911F910F9108950F931F93CF93DF9367
:1034F0008C01C0E0D0E0F801619171918F016115FC
:10350000710529F180E090E00E94D64EAE01417035
:103510005527C0FF02C040E050E8D695C7959B01F3
:1035200033272C0F3D1F240F351FA901417055274C
:1035300020FF02C040E050E836952795C72FDD27D1
:10354000B9016C0F7D1FEB01C40FD51FD4CFCE0185
:10355000DF91CF911F910F910895FB01480F591FE3
:103560002191DC012D93CD01A417B507C9F708956A
:10357000FB01438D50E0542F4427928D492B60E08E
:1035800070E0833079F4858990E0982F882724892A
:10359000822BA0E0B0E0DC0199278827482B592B2B
:1035A0006A2B7B2BCB01BA010895FB01228F338F4D
:1035B000DC018C91833029F4CA01AA27BB27848BB4
:1035C000958B08950F931F93CF93DF938C01EB019D
:1035D000DC018D919C91C4960E9412176E837F83AB
:1035E00088879987F80180819181C8960E942D175C
:1035F0002A873B874C875D876E877F87888B998B6F
:10360000D801ED91FC9181A182708D831E8A1F8A61
:10361000188E198EDF91CF911F910F9108958F927F
:103620009F92AF92BF92EF92FF920F931F93CF930F
:10363000DF93FC0123812223C1F1EC017C01F7E33C
:10364000EF0EF11C2BA93CA94DA95EA901E010E0E9
:10365000B70189810E941F15811129C01B828BA986
:103660009CA9ADA9BEA90B8D1C8D2D8D3E8D8BA067
:103670009CA0ADA0BEA0AC01BD01481959096A09C2
:103680007B09401751076207730778F46A8162303B
:1036900061F4A9019801280F391F4A1F5B1F01E03F
:1036A00010E0B70189810E941F1580E001C081E010
:1036B000DF91CF911F910F91FF90EF90BF90AF904E
:1036C0009F908F9008958F929F92AF92BF92FF929A
:1036D0000F931F93CF93DF93EC014A015B018BA9FA
:1036E0009CA9ADA9BEA9481759076A077B07E9F04D
:1036F000CE010E940F1BF82E811118C001E010E0CE
:10370000A5019401BE01695C7F4F89810E94D41498
:10371000882331F0FF24F39488248A94982C540150
:103720008BAA9CAAADAABEAA01C0F12C8F2DDF9155
:10373000CF911F910F91FF90BF90AF909F908F906E
:1037400008954F925F926F927F928F929F92AF9265
:10375000BF92CF92DF92EF92FF920F931F93CF937E
:10376000DF936C0148015901DB01CA010297A109ED
:10377000B1098C019D014CE0369527951795079569
:103780004A95D1F7F60147A550A961A972A9400F42
:10379000511F621F731F8C019D01E3E03695279531
:1037A00017950795EA95D1F7E801D17087709927A9
:1037B00011E001C0110F8A95EAF701E02A013B01EF
:1037C000FFEF4F1A5F0A6F0A7F0AC6010E94631B50
:1037D000811125C0F601EC0FFD1F97A9492F412348
:1037E00021E030E011F420E030E0E216F306C9F009
:1037F000912797ABF6010383F1E08F1A9108A10896
:10380000B10881F0110F31F7219611E0C11592E056
:10381000D90701F7C0E0D0E0B301A201CFCF81E02A
:1038200001C082E0DF91CF911F910F91FF90EF9047
:10383000DF90CF90BF90AF909F908F907F906F90D0
:103840005F904F9008952F923F924F925F926F92A8
:103850007F928F929F92AF92BF92CF92DF92EF9220
:10386000FF920F931F93CF93DF9300D000D01F924E
:10387000CDB7DEB7FC016A017B01208131813C8339
:103880002B83423051056105710508F464C1AB8199
:10389000BC8157964D915D916D917C915A97C4165C
:1038A000D506E606F70608F056C18C91823009F479
:1038B0005CC018F4813041F04EC1833009F47EC001
:1038C000843009F4A5C047C18601169507950C0DF3
:1038D0001D1DC801892F99278695EB81FC8143A185
:1038E00054A165A176A1480F591F611D711DCF011B
:1038F0000E94631B882321F06FEF7FEFCB0134C15F
:103900005801FFEFAF1ABF0A1170EB81FC81E00F85
:10391000F11F17A9C501892F99278695AB81BC8115
:1039200093964D915D916D917C919697480F591F9B
:10393000611D711DCD010E94631B8111DDCFB1E0BE
:10394000BB22EB81FC81EA0DFB1D87A9612F70E092
:10395000782BC0FE06C024E0769567952A95E1F79E
:1039600001C07F7080E090E0FFC077276F2D5E2D53
:103970004D2DEB81FC8183A194A1A5A1B6A1480F97
:10398000591F6A1F7B1FCF010E94631B8111B4CF97
:10399000CC0CDD1CE894C0F8F1E0DF22EB81FC8167
:1039A000EC0DFD1D90AD692F70E0762F6627EB8141
:1039B000FC81EC0DFD1D87A9682BD4CFEB81FC8128
:1039C00083A194A1A5A1B6A1B701A60117E07695A0
:1039D0006795579547951A95D1F7480F591F6A1F54
:1039E0007B1FCF010E94631B811186CFCC0CDD1C95
:1039F000CC0CDD1CFCEFCF22F1E0DF22C601C79624
:103A00002B813C81820F931F0E9412179F70ACC0C4
:103A10003284438454846584768407851089B1890F
:103A2000BD83232D342D452D562D672D702F812FCD
:103A30009B2FA0E025800E94687441F04681578149
:103A400060857185452B462B472B11F4211083C0CF
:103A5000468157816085718546015701841A950A10
:103A6000A60AB70AAB81BC8119960D90BC91A02D16
:103A7000BA83A983B2E02B1230C0232D342D452DFB
:103A8000562D672D702F812F9D81AFEF0E944A74B4
:103A900009E00E942574B22FA32FE42F152F8981EE
:103AA0009A819C0140E050E06B2F7A2F8E2F912F4E
:103AB0000E948073281539054A055B0508F44BC040
:103AC00082169306A406B50609F44AC0C701B601DA
:103AD0006F5F7F4F8F4F9F4F47C093E0291209C000
:103AE00082899389A489B58988169906AA06BB0696
:103AF00068F386899789A08DB18D892B8A2B8B2BB2
:103B000079F5EB81FC8183A194A1A5A1B6A1B701B0
:103B1000A60127E076956795579547952A95D1F7A1
:103B2000480F591F6A1F7B1FCF010E94631B811121
:103B3000E3CECC0CDD1CCC0CDD1CFCEFCF22F1E085
:103B4000DF22C601C7962B813C81820F931F0E9402
:103B500012179F7709C061E070E080E090E004C038
:103B60006FEF7FEF8FEF9FE70F900F900F900F9009
:103B70000F90DF91CF911F910F91FF90EF90DF9009
:103B8000CF90BF90AF909F908F907F906F905F90FD
:103B90004F903F902F9008954F925F926F927F9237
:103BA0008F929F92AF92BF92CF92DF92EF92FF924D
:103BB0000F931F93CF93DF93EC016A017B01088180
:103BC0001981F8018081843029F080E090E0A0E242
:103BD000B0E004C080E090E0A0E0B0E1C816D906F3
:103BE000EA06FB0610F082E0AAC0D701C6018F7179
:103BF0009927AA27BB27892B8A2B8B2BA1F7CEA22B
:103C0000DFA2E8A6F9A68E809F80A884B9848114DB
:103C10009104A104B10469F5F80180818330E8F4CE
:103C2000F80187819085A0E0B0E0B701A601E5E04A
:103C30007695679557954795EA95D1F748175907AF
:103C40006A077B0780F6F80187A190A5A1A5B2A518
:103C50008EA79FA7A8ABB9AB48C0F80187A190A5D4
:103C6000A1A5B2A51D820097A105B105C9F24C011D
:103C70005D01F80141845284612C712C39E0440CBF
:103C8000551C661C771C3A95D1F7B501A401C414E4
:103C9000D504E604F70410F1CE010E94231C4B0169
:103CA0005C016F3F7F4F8F4F9F4F09F447C082E009
:103CB00088169104A104B10408F495CFF80187890E
:103CC000908DA18DB28D88169906AA06BB0608F0C4
:103CD0008ACFC418D508E608F708D7CFC8010E94D4
:103CE0009F176EA77FA788AB99AB8AA69BA6ACA6A9
:103CF000BDA68EA59FA5A8A9B9A90097A105B10544
:103D000009F471CFB701A60129E07695679557951B
:103D100047952A95D1F7840F951FA61FB71F8EA729
:103D20009FA7A8ABB9ABF1E0DF2287E3C80ED11C97
:103D3000C00ED11EDBAACAAA80E001C081E0DF91DB
:103D4000CF911F910F91FF90EF90DF90CF90BF9098
:103D5000AF909F908F907F906F905F904F9008955D
:103D6000CF93DF93EC011B828FEF9FEFDC018BABD6
:103D70009CABADABBEABCE010E94631B811134C0C6
:103D8000FE01EA5CFD4F808190E0982F88273197F3
:103D90002081822B85359A4A49F54BE050E065E059
:103DA00076E0CE01C7960E949017892B09F18FA962
:103DB0008B3E19F0885E8230F8F443E050E061E118
:103DC00076E0CE0183599F4F0E949017892B91F086
:103DD00045E050E065E176E0CE0187579F4F0E94B5
:103DE0009017892B49F406C084E007C083E005C022
:103DF00081E003C080E001C082E0DF91CF910895AF
:103E00002F923F924F925F926F927F928F929F92EA
:103E1000AF92BF92CF92DF92EF92FF920F931F93D8
:103E2000CF93DF93CDB7DEB7E2970FB6F894DEBF3E
:103E30000FBECDBF6B01142FDB011D921C920E949F
:103E400007187C0197FD84C2FC01EE0FFF1FE152B1
:103E5000F44F208031802114310409F47BC2F60133
:103E6000318220821E7FD1018C91882369F01196C6
:103E70008C910E94CD1480FD07C0112309F46CC2FF
:103E800082FF6AC28AE02CC4F1011082E1828E2D89
:103E90000E940D1480FD62C2112311F082FDF2CF49
:103EA00040E050E0BA01C1010E94B01E823009F02A
:103EB00043C08E010F5F1F4F7801810103501E4FD9
:103EC000510123ECA21A2DEFB20A6701F8013497D1
:103ED0008081882321F0C8010E94121703C060E08E
:103EE00070E0CB01D6016D937D938D939D936D0111
:103EF000005F1F4F0A151B0549F78E010F5E1F4F0C
:103F0000D7014D905D906D907D907D01498E5A8EC8
:103F10006B8E7C8E411451046104710441F0B30135
:103F2000A201C1010E94B01E823010F411C083E0D2
:103F3000E016F10629F7D0C3198E1A8E1B8E1C8E3F
:103F4000843011F481E0CCC3823010F08DE0C8C31E
:103F5000F101EE5BFF4F813051F4910129583F4F41
:103F600081918111F3CFE217F307D1F7F9C1D101A4
:103F7000AD5BBF4F8C9190E0982F88272081822BDA
:103F80008115924019F7F101E25BFF4F8080912C7F
:103F9000982C882431978081882A8114910419F003
:103FA000A12CB12C07C0C101855A9F4F0E94121746
:103FB0004B015C01D1015B968D929D92AD92BC92BA
:103FC0005E97F101E95BFF4F0081F10102838FEF02
:103FD000800F823008F0BACFEC5BFF4F1081812F49
:103FE00090E01A969C938E931997009709F4AECFA0
:103FF0009C012150310982239323892B09F0A6CFFC
:104000003596808190E0382F2227319780812901D1
:10401000482A5A8A498A18965C924E921797C2018A
:104020008F709927892B09F091CF3396808190E08A
:10403000982F882731972081822B2C01612C712C9D
:10404000892B39F4C101895A9F4F0E9412172B0105
:104050003C01F101EA5BFF4FE081F0E0FE2FEE272B
:10406000D101AB5BBF4F8C91E82B309709F46ECF39
:10407000A02FB0E0A50194010E9441736D8F7E8F47
:104080008F8F98A36F01E12CF12CC9A2DAA2EBA2C9
:10409000FCA289899A89B4E096958795BA95E1F74B
:1040A000C80ED91EE11CF11CD701C601CD8CDE8CD7
:1040B000EF8CF8A0C80ED91EEA1EFB1E4C145D043E
:1040C0006E047F0408F442CFC301B2016C197D096C
:1040D0008E099F09212F30E040E050E00E9480735C
:1040E000211531054105510509F430CF263F0FEF69
:1040F000300740070FE0500708F028CF263F1FEF9A
:1041000031074105510540F4263F8FE0380741054E
:10411000510520F411E003C013E001C012E02901B1
:104120003A0192E0490E511C611C711CD101579655
:104130004D925D926D927C925A97298D3A8D4B8D5E
:104140005C8D5F962D933D934D935C939297DA012E
:10415000C90129A13AA14BA15CA1820F931FA41F01
:10416000B51FF10183A394A3A5A3B6A3498D5A8DCE
:104170006B8D7C8D4C0D5D1D6E1D7F1D43A754A75F
:1041800065A776A7133029F5EE59FF4F808190E09F
:10419000982F882731972081822B892B09F0D6CE42
:1041A000C988DA88CD2809F0D1CEC1018D599F4F39
:1041B0000E941217D10197966D937D938D939C93D6
:1041C0009A97E2E0440C551C661C771CEA95D1F7DF
:1041D0002DC0C988DA88CD2809F4B8CECD8CDE8C04
:1041E000EF8CF8A0C80ED91EEA1EFB1EC7A2D0A6EF
:1041F000E1A6F2A6123029F4440C551C661C771C6B
:1042000015C0A3E0B0E0A30192010E944173DC015C
:10421000CB01B695A79597958795E1E04E22552459
:1042200066247724480E591E6A1E7B1EFFEF4F0E30
:10423000F1E05F1E611C711C59E0769467945794FD
:1042400047945A95D1F784149504A604B70408F44A
:104250007DCE8FEF9FEFDC01F101838B948BA58BDB
:10426000B68B8787908BA18BB28B80E884831330C9
:1042700009F052C0E859FF4F808190E0982F8827BD
:1042800031972081822B019709F046C0498D5A8DC4
:104290006B8D7C8D4F5F5F4F6F4F7F4FC1010E94D1
:1042A000631B811139C0D10114961C92F101EA5CA3
:1042B000FD4F808190E0982F882731972081822BB5
:1042C00085359A4A49F5C101C7960E941217623591
:1042D00072458146914401F5C101855E9D4F0E9462
:1042E00012176237724781449146B1F4C101815E71
:1042F0009D4F0E941217D10153966D937D938D931C
:104300009C935697C1018D5D9D4F0E941217F1013C
:104310006787708B818B928BD1011C938091DD0B11
:104320009091DE0B01969093DE0B8093DD0B169639
:104330009C938E9315978DE797E01C969C938E9394
:104340001B978DE799E01E969C938E931D9704C052
:104350008BE0C6C18CE0C4C180E0C2C183E0C0C1B3
:10436000F101E056FF4F808190E0982F8827319728
:104370002081822B8115914009F0E8CDF101ED55A6
:10438000FF4F81E090E0008002C0880F991F0A94DF
:10439000E2F78115924009F0D9CDC10181589F4FB4
:1043A0000E942D17498C5A8C6B8C7C8C53014201D6
:1043B000C12CD12C7601498A9A8AAB8ABC8ACD8AD3
:1043C000DE8AEF8AF88E5201CB88DC88E12CF12C52
:1043D00000E010E00E9441742D8F39A3742E652EE9
:1043E000562E472E8DA39EA3562D652D742D2F3F3F
:1043F0003F4F4F4F5F4F610571058105910511F0EA
:1044000008F0A4CDC10185579F4F0E941217D1011A
:104410005B966D937D938D939C935E97F101EB5525
:10442000FF4F8081F1018283813009F08FCDEC55FF
:10443000FF4F01E010E0008002C0000F111F0A943E
:10444000E2F71A961C930E9319970115110509F4BA
:104450007DCDC1018D569F4F0E9412179B01AC016B
:104460006E3FBFEF7B078B07BFE79B0708F06ECD62
:10447000DC01CB010296A11DB11DF101878B908F4C
:10448000A18FB28F898C9A8CAB8CBC8C878E90A2BA
:10449000A1A2B2A2C10181579F4F2FA338A749A75C
:1044A0005AA70E941217860E971EA81EB91E898A47
:1044B0009A8AAB8ABC8AF10183A694A6A5A6B6A661
:1044C000C10189579F4F0E941217898C9A8CAB8C1F
:1044D000BC8C860E971EA81EB91EF10183A294A261
:1044E000A5A2B6A2A988BA88CB88DC884501560166
:1044F000C12CD12C76018BA69CA6ADA6BEA6CFA6BC
:10450000D8AAE9AAFAAAD8012FA138A549A55AA57F
:104510000E9441737B018C0120E030E0A901698B8E
:10452000FA8A0B8B1C8B2D8B3E8B4F8B588F9401F3
:10453000A50160E070E080E090E057016801E12CA7
:10454000F12C00E010E00E94417459016A017B01E6
:104550008C012D8D39A1472D562D652D742D8DA1E2
:104560009EA10E945F7408F4F1CCC10189569F4F4F
:104570000E941217D10197966D937D938D939C9312
:104580009A97C12CD12C760100E010E0011511059D
:1045900011F5F10181859285A0E0B0E0C816D90639
:1045A000EA06FB0608F0D2CC47A150A561A572A58A
:1045B000C1010E949F17AB01BC014C0D5D1D6E1D1A
:1045C0007F1DC1010E94631B8111BCCCFFEFCF1A7C
:1045D000DF0AEF0AFF0AF101E00FF11F87A9813816
:1045E00021F0005E1F4F1170D1CFC801855B9F4F36
:1045F000820D931D0E9412176B017C0162307105C0
:104600008105910508F4A2CCF1018789908DA18DD7
:10461000B28DC816D906EA06FB0608F097CCA1852C
:10462000B285A701960122503109410951090E9422
:10463000417303A514A525A536A5DC01CB01800F88
:10464000911FA21FB31F87A790ABA1ABB2ABF10123
:1046500083A194A1A5A1B6A1B701A601E7E0769533
:10466000679557954795EA95D1F7480F591F6A1FE7
:104670007B1FC1010E94631B811164CCC6018F772F
:104680009927880F991F880F991FC796820D931D30
:104690000E9412176F3FFFEF7F078F079F0771F090
:1046A0000FEFC01AD00AE00AF00A6C157D058E05DE
:1046B0009F0509F04BCC6B017C01C9CFD10153960A
:1046C0006D937D938D939C935697F1016787708BC3
:1046D000818B928B14E020CE843009F037CC32CC21
:1046E000E2960FB6F894DEBF0FBECDBFDF91CF913B
:1046F0001F910F91FF90EF90DF90CF90BF90AF9000
:104700009F908F907F906F905F904F903F902F90F1
:1047100008952F923F924F925F926F927F928F9265
:104720009F92AF92BF92CF92DF92EF92FF920F9340
:104730001F93CF93DF9300D000D0CDB7DEB71C011D
:104740006A017B012801390142305105610571057B
:1047500008F4EEC0FC018789908DA18DB28D4817B9
:1047600059076A077B0708F0E3C08081823009F4AB
:104770007AC018F4813029F0DBC0853008F495C088
:10478000D7C05A01B694A794A40EB51EC501892FAF
:1047900099278695D10193964D915D916D917C916C
:1047A0009697480F591F611D711DC1010E94631B1F
:1047B000182F8111BEC04501BFEF8B1A9B0AE1E0A3
:1047C000BE22A20CB31CD701C60181709927AA276B
:1047D000BB2789839A83AB83BC83C0FE0BC0D50102
:1047E000D7968C91282F2F70B0E14B9EC0011124D9
:1047F000822B01C0842DF50187AB81E0D101139696
:104800008C93139793964D915D916D917C919697B2
:10481000C401892F99278695480F591F611D711D65
:10482000C1010E94631B182F811183C0B1E09B223C
:10483000F101E80DF91D89819A81AB81BC81892B39
:104840008A2B8B2B41F054E07694679457944794CD
:104850005A95D1F706C067A9607F852D8F70462EC7
:10486000482A47AA60C077276F2D5E2D4D2DF10194
:1048700083A194A1A5A1B6A1480F591F6A1F7B1F50
:10488000C1010E94631B182F811153C0CC0CDD1C89
:10489000E894C0F8F1E0DF22F101EC0DFD1D47AA1C
:1048A000F101EC0DFD1D50AE3EC0F10183A194A1BC
:1048B000A5A1B6A127E076956795579547952A95C6
:1048C000D1F7480F591F6A1F7B1FC1010E94631B4C
:1048D000182F81112EC0D1018C91CC0CDD1CCC0C79
:1048E000DD1C8430A1F0BFE07B22C6018C7F91707B
:1048F000C796820D931D0E941217DC01CB018827F9
:104900009927AA27B07F482A592A6A2A7B2AECEFDE
:10491000CE22E1E0DE22C601C796B301A201820DDC
:10492000931D0E94561781E0D10113968C9301C00C
:1049300012E0812F0F900F900F900F90DF91CF9189
:104940001F910F91FF90EF90DF90CF90BF90AF90AD
:104950009F908F907F906F905F904F903F902F909F
:1049600008952F923F924F925F926F927F928F9213
:104970009F92AF92BF92CF92DF92EF92FF920F93EE
:104980001F93CF93DF9300D000D0CDB7DEB79C83C9
:104990008B836A017B0109831A83322E232E82E0E6
:1049A000882E912CA12CB12C412C512C32014394F6
:1049B000EB81FC8186899789A08DB18D0097A10537
:1049C000B105A1F182309105A105B10558F095011D
:1049D0008401081B190B2A0B3B0B0C0D1D1D2E1DF2
:1049E0003F1D04C009811A81232D322DB301A2017C
:1049F000481B590B6A0B7B0B4C0D5D1D6E1D7F1DFB
:104A0000EB81FC81808191810E94892381110FC0FB
:104A1000EB81FC8186899789A08DB18D0197A109D1
:104A2000B109868B978BA08FB18FC2CF80E00F909A
:104A30000F900F900F90DF91CF911F910F91FF90EA
:104A4000EF90DF90CF90BF90AF909F908F907F902E
:104A50006F905F904F903F902F9008952F923F92CC
:104A60004F925F926F927F928F929F92AF92BF927E
:104A7000CF92DF92EF92FF920F931F93CF93DF932A
:104A800000D000D000D0CDB7DEB71C016A017B0199
:104A900028013901DC010D90BC91A02DBE83AD83AE
:104AA000423051056105710510F482E003C1ED81CA
:104AB000FE818789908DA18DB28D481759076A07AD
:104AC0007B0798F7012B022B032B29F4C982DA828A
:104AD000EB82FC825BC0AD81BE818C91843021F47D
:104AE000F1018581823091F30FEF1FEF9801B3013F
:104AF000A2018D819E810E948923882339F3DAC027
:104B0000613071058105910581F26F3F7F4F8F4FB5
:104B10009F4F09F46EC0AD81BE818C91843009F045
:104B20006AC0ED81FE8183899489A589B689478908
:104B3000508D618D728D4250510961097109841740
:104B40009507A607B70750F40196A11DB11D838BE9
:104B5000948BA58BB68B848181608483FFEFCF1A01
:104B6000DF0AEF0AFF0AC814D904EA04FB0409F0BB
:104B70004EC075016401ED81FE818789908DA18D04
:104B8000B28D88169906AA06BB0668F4B701A6017D
:104B9000C1010E94231C4B015C0161157105810557
:104BA000910509F0ADCFAD81BE818C91843009F0C3
:104BB00080C04BC0F101858181115EC0C680D78065
:104BC000E084F184C414D504E604F70409F46DC04C
:104BD000B701A601C1010E94231C62307105810545
:104BE000910508F462CF6F3FFFEF7F078F079F07A4
:104BF000B1F581E05FC000E010E09801B701A601C7
:104C0000CD010E948923882309F48BCF53C0AD8145
:104C1000BE818C918430A1F49701860189819A81AB
:104C2000AB81BC81081B190B2A0B3B0BE12CF12C2F
:104C3000AC01BD018D819E810E94A11B81113AC0F2
:104C400089829A82AB82BC8294CF41145104610460
:104C5000710409F0AFCFD10115961C922AC02FEF35
:104C6000C21AD20AE20AF20A6C157D058E059F056A
:104C700001F56B017C01A6CF8330D9F4F1014681A7
:104C8000578160857185441655066606770688F05B
:104C900082899389A489B589840F951FA61FB71FA0
:104CA00084159505A605B70520F082E0D10115967B
:104CB0008C9380E026960FB6F894DEBF0FBECDBF72
:104CC000DF91CF911F910F91FF90EF90DF90CF90E8
:104CD000BF90AF909F908F907F906F905F904F901C
:104CE0003F902F9008958F929F92AF92BF92CF9254
:104CF000DF92EF92FF920F931F93CF93DF93EC011C
:104D00004E815F8168857985CA88DB88EC88FD885B
:104D1000C40ED51EE61EF71E4C155D056E057F05FB
:104D200091F04A015B018FEF881A980AA80AB80A25
:104D300095018401888199810E948923811105C090
:104D4000B501A401E9CF1D8280E0DF91CF911F91D1
:104D50000F91FF90EF90DF90CF90BF90AF909F901A
:104D60008F9008956F927F928F929F92AF92BF9291
:104D7000CF92DF92EF92FF920F931F93CF93DF9327
:104D800000D000D0CDB7DEB73C0149835A836B8396
:104D90007C830E940F1B49815A816B817C81811128
:104DA00039C0C3010E949F174B015C01F30163AB43
:104DB00074AB85AB96AB6301F7E3CF0ED11C40E03B
:104DC00052E060E070E0C6010E948717E12CF12CF0
:104DD000F30181859285E816F90648F081E0F30138
:104DE00021853285E216F306B1F480E014C001E0BB
:104DF00010E0A50194012E0D3F1D411D511DB6016E
:104E0000F30181810E941F158111E8CF8FEFE81A0D
:104E1000F80ADECF81E00F900F900F900F90DF9196
:104E2000CF911F910F91FF90EF90DF90CF90BF90A7
:104E3000AF909F908F907F906F9008953F924F9288
:104E40005F926F927F928F929F92AF92BF92CF921A
:104E5000DF92EF92FF920F931F93CF93DF93CDB723
:104E6000DEB72A970FB6F894DEBF0FBECDBF6C0138
:104E700049835A836B837C83DC010D90BC91A02D08
:104E8000BA87A987452B462B472BB9F41F964D901F
:104E90005D906D907C9052974114510461047104AF
:104EA000A9F157968D919D910D90BC91A02D48161A
:104EB00059066A067B0670F129C049815A816B81C7
:104EC0007C810E94231C4B015C01623071058105CD
:104ED000910508F43AC26F3F7F4F8F4F9F4F29F4DF
:104EE0006FEF7FEF8FEF9FEF3BC2E985FA858789F0
:104EF000908DA18DB28D88169906AA06BB0608F47E
:104F000029C249805A806B807C8004C0412C512C7E
:104F100032014394E985FA8583899489A589B68904
:104F2000892B8A2B8B2B11F460E010C2A985BA85DE
:104F30002C9157968D919D910D90BC91A02D243070
:104F400009F02FC1A30192012250310941095109F1
:104F50002D833E834F8358870297A109B1092817F3
:104F600039074A075B0720F01D821E821F821886C0
:104F70008D809E80AF80B88433243394E985FA8590
:104F800087A590A9A1A9B2A9B501A4011CE07695B5
:104F90006795579547951A95D1F7480F591F6A1F7E
:104FA0007B1FCF010E94631B81115DC0D501C4012D
:104FB00043E0B695A795979587954A95D1F79C01BB
:104FC0003170C40187709927F32D01C0FF0F8A95B6
:104FD000EAF78F2FA985BA8557964D915D916D910E
:104FE0007C915A977A018B01B2E0EB1AF108010922
:104FF0001109E985FA85E20FF31F97A99823B501F6
:10500000A4014F5F5F4F6F4F7F4F4E155F056007E5
:10501000710710F4880F06C040E050E0BA0120E0AC
:1050200032E080E0911106C0E2E08E0E911CA11CDE
:10503000B11C21C08D809E80AF80B8844815590571
:105040006A057B05A9F0882319F04A015B01D1CFDD
:105050002F5F3F4F211582E0380710F481E0F5CF34
:105060004A015B018BCF88248A94982C540103C099
:10507000812C912C5401D501C4010197A109B109DA
:105080008E3F9F4FAF4FBF4F08F064C1EE24E394B3
:10509000F12C01E010E020E030E0B501A4018985A9
:1050A0009A850E94A11B823009F44FC1813009F416
:1050B00017CF29813A814B815C81232B242B252B0F
:1050C00019F492E0D6011DC0F60195819230D9F411
:1050D000B301A2014F5F5F4F6F4F7F4F841695065C
:1050E000A606B70681F04681578160857185441A0E
:1050F000550A660A770AD601428A538A648A758AF3
:1051000093E015969C93F6019581923009F425C1A0
:1051100046895789608D718D09811A812B813C8167
:105120000F5F1F4F2F4F3F4F80169106A206B30609
:10513000B1F4411551056105710529F04F5F5F4FCD
:105140006F4F7F4F04C042E050E060E070E0D60156
:1051500056964D935D936D937C935997FEC0452B66
:10516000462B472B49F481E090E0A0E0B0E0F60147
:10517000868B978BA08FB18F9501840149815A81CD
:105180006B817C81C6010E94B1248111DBC081E06A
:1051900090E0A0E0B0E0F601868B978BA08FB18FF6
:1051A000A7C089809A80AB80BC80481459046A04E7
:1051B0007B0409F043C0530142012FEF821A920A87
:1051C000A20AB20A88169906AA06BB0628F092E03F
:1051D000892E912CA12CB12CB501A401C6010E94ED
:1051E000231C613071058105910509F4AEC06F3F44
:1051F0003FEF73078307930709F472CE672B682B81
:10520000692BB9F0E985FA8587859089A189B289EA
:1052100082309105A105B10588F04789508D618DD7
:10522000728D84179507A607B70740F42C013D013E
:1052300005C081149104A104B104E9F553014201B0
:10524000FFEF8F1A9F0AAF0ABF0AE985FA8587899F
:10525000908DA18DB28D88169906AA06BB0660F0C6
:10526000F2E04F1651046104710408F45DCE82E04F
:10527000882E912CA12CB12CB501A401C6010E944D
:10528000231C8B019C01611571058105910599F025
:10529000613071058105910529F06F3F7F4F8F4F78
:1052A0009F4F19F4B801C9015BC084149504A6048A
:1052B000B70431F639CE0FEF1FEF9801B501A40105
:1052C00089859A850E94892381113CC089819A81B0
:1052D000AB81BC810097A105B10551F09501840116
:1052E000AC01BD0189859A850E94892381112AC05C
:1052F000A985BA851F968D929D92AD92BC925297C8
:10530000FD0183899489A589B6894789508D618D6E
:10531000728D4250510961097109481759076A078E
:105320007B0738F00197A109B109838B948BA58B7A
:10533000B68BA985BA8514968C91149781601496C2
:105340008C9308C0813009F4CBCD61E070E080E03F
:1053500090E006C0B401C50103C0882349F2F5CF2F
:105360002A960FB6F894DEBF0FBECDBFDF91CF9166
:105370001F910F91FF90EF90DF90CF90BF90AF9073
:105380009F908F907F906F905F904F903F90089587
:105390004F925F926F927F92AF92BF92CF92DF92C5
:1053A000EF92FF920F931F93CF93DF93EC0108814D
:1053B0001981CEA0DFA0E8A4F9A480E2C80ED11C18
:1053C000E11CF11CF8018081843029F080E090E03C
:1053D000A0E2B0E004C080E090E0A0E0B0E1C81638
:1053E000D906EA06FB0620F01EA61FA618AA19AACF
:1053F0008EA59FA5A8A9B9A90097A105B10509F493
:10540000AAC05B01B701A601517066277727452B1B
:10541000462B472B09F090C00196A11DB11D8EA708
:105420009FA7A8ABB9AB4AA55BA56CA57DA5F80164
:105430004115510561057105C1F487819085A0E092
:10544000B0E0B701A60135E0769567955795479589
:105450003A95D1F7481759076A077B0708F46CC0DB
:105460001EA61FA618AA19AA76C081859285019743
:10547000A0E0B0E02601370129E0769467945794C4
:1054800047942A95D1F784219521A621B721892B0C
:105490008A2B8B2B09F050C0CE010E94231C2B01BC
:1054A0003C01623071058105910510F482E056C01F
:1054B0008FEF481658066806780611F481E04EC052
:1054C000F8018789908DA18DB28D481659066A061C
:1054D0007B0628F1AB2821F24AA55BA56CA57DA52A
:1054E000CE010E941E272B013C016115710581052B
:1054F000910599F16130710581059105B9F28FEF40
:105500004816580668067806C9F2B301A201C80118
:105510000E94B2268111D2CF8D8184608D834AA6EC
:105520005BA66CA67DA6B301A201C8010E949F17CD
:105530006EA77FA788AB99ABCEA2DFA2E8A6F9A69B
:10554000E1E0DE22F7E3CF0ED11CC00ED11EDBAAB4
:10555000CAAA80E003C084E001C087E0DF91CF9158
:105560001F910F91FF90EF90DF90CF90BF90AF9081
:105570007F906F905F904F900895CF92DF92EF925F
:10558000FF920F931F93CF93DF93EC016B01E880A1
:10559000F98040E050E0BA010E94CC1D81112FC07B
:1055A00000E010E04EA55FA568A979A9C7010E9497
:1055B000631B811124C0F7019081EAA9FBA99430F3
:1055C00031F490819095991F9927991F07C02081E8
:1055D00091E0253E11F0211190E09170992331F076
:1055E0000F5F1F4F0C151D0519F40CC000E010E0F3
:1055F00061E070E0CE010E94C829882399F28430CE
:1056000009F487E0DF91CF911F910F91FF90EF9008
:10561000DF90CF900895AF92BF92CF92DF92EF923A
:10562000FF920F931F93CF93DF93EC0108811981B1
:10563000CEA0DFA0E8A4F9A4FC01E05CFF4F40810C
:105640005181628173814F3F8FEF58076807780758
:1056500029F485EEB82EAA24A39421C0CE010E947D
:10566000CC1D81112BC0F5CFF8019081EAA9FBA9CF
:105670009430F9F490819F779083F801A3824EA132
:105680005FA168A579A54C155D056E057F05B0F491
:1056900060E070E0CE010E94C82981110CC04EA5C7
:1056A0005FA568A979A9C8010E94631B8823E1F25C
:1056B00002C0B082E2CF843009F482E0DF91CF9162
:1056C0001F910F91FF90EF90DF90CF90BF90AF9020
:1056D0000895EF92FF920F931F93CF93DF93EC0106
:1056E0000E940F1B982F81115CC08881833009F0C4
:1056F0004EC08C81813009F04AC040E052E060E049
:1057000070E07E0187E3E80EF11CC7010E94871755
:1057100085E5FE01EB5CFD4F80838AEA319680834C
:1057200082E58FAB88AF81E689AF91E49AAF22E73B
:105730007B972083319620833196908331968083A6
:105740004B895C896D897E89CE01815E9D4F0E9467
:1057500056174F85588969897A89CE018D5D9D4F8D
:105760000E9456178F8D98A1A9A1BAA19C01AD01E5
:105770002F5F3F4F4F4F5F4F2BAB3CAB4DAB5EAB03
:1057800001E010E0B70189810E941F151C8240E0F2
:1057900050E060E089810E94901591E0811101C084
:1057A00090E0892FDF91CF911F910F91FF90EF90A3
:1057B0000895CF92DF92EF92FF920F931F93CF93B2
:1057C000DF938C01DC01ED91FC91E584F684C70147
:1057D0000E94D617F70182839383C180F801E05CB1
:1057E000FF4F4081518162817381C8010E94CC1DAD
:1057F000C82FD12CD1E0C1112AC0D8019E964D915D
:105800005D916D917C91D1978D919C910E94631BCC
:10581000C82F81111CC040E250E0B701F80182A9F5
:1058200093A90E94AD1AD801ED91FC91D383C114C4
:10583000D10469F0B0E2EB0EF11C60E070E0C80149
:105840000E94C829C82FE1E0CE1AD108D4CF8C2FEE
:10585000C33008F082E0DF91CF911F910F91FF904C
:10586000EF90DF90CF900895CF92DF92EF92FF926A
:105870000F931F93CF93DF93EC0188819981FC01F3
:10588000058516854EA55FA568A979A90E94631BA9
:10589000811191C06AA97BA9FB018081853809F03B
:1058A00063C040E250E0C8010E94AD1AF801E180F7
:1058B000F12CFFEFEF1AFF0AF5E0EE0CFF1CFA9552
:1058C000E1F7C701805691098130924008F04CC041
:1058D00060E070E0CE010E94C829843009F444C021
:1058E000811169C04EA55FA568A979A988819981B0
:1058F0000E94631B81115FC06AA97BA9FB018081A3
:10590000803C91F540E250E0C80180960E94AD1ABB
:10591000F80183A190E08C966FE070E00E945873CC
:10592000E5E0660F771FEA95E1F7E616F706E0F087
:1059300050E4C52ED12C60E070E0CE010E94C82951
:10594000843091F0811137C04EA55FA568A979A96F
:10595000888199810E94631B81112DC06AA97BA94E
:10596000FB018081813C11F082E025C0F0E6CF167A
:10597000F2E0DF0638F440E250E0C8018C0D9D1DD6
:105980000E94AD1A20E2C20ED11CCE14DF0498F2A0
:1059900081E6C81682E0D80668F4C8010E94D617CE
:1059A000F801238130E0322F22274281242B8217F5
:1059B0009307D1F680E0DF91CF911F910F91FF9077
:1059C000EF90DF90CF9008954F925F927F928F92E9
:1059D0009F92AF92BF92CF92DF92EF92FF920F937E
:1059E0001F93CF93DF93EC016B01E880F9800FEFF9
:1059F0001FEF84E0B82E9DE0792E4E0160E4860E04
:105A0000911C4EA55FA568A979A9411551056105AD
:105A1000710509F4CFC0C7010E94631BB82E811124
:105A2000CBC0EAA9FBA98081882309F4CCC0D701A7
:105A30009C91943019F5C114D10421F0833809F0F8
:105A4000AFC0C6C0853809F0ABC08EA19FA1A8A584
:105A5000B9A5FE01E05CFF4F80839183A283B383ED
:105A6000CE010E94342C8111B1C0D7011D96ED9159
:105A7000FC911E9784818F738C83AAC093859F733A
:105A80009C83853E09F48BC08E3209F488C021E0E6
:105A900030E0492F4F71483011F020E030E02C15F4
:105AA0003D0509F07CC09F3009F068C086FF0EC03C
:105AB0000585182F1F7B4EA15FA168A579A5D4018C
:105AC0004D935D936D937C93139702C0811367C0D0
:105AD0008585081364C0D7011B96AD90BC901C97B8
