:100000000C94C3030C94E4030C94E4030C94E403F5
:100010000C94E4030C94E4030C94E4030C94E403C4
:100020000C94E4030C94E4030C94E4030C94E403B4
:100030000C94E4030C94E4030C94E4030C94E403A4
:100040000C94E4030C94E4030C94E4030C94E40394
:100050000C9499070C94E4030C94E4030C94E403CB
:100060000C94200F0C94E4030C94E4030C94E4032C
:100070000C940A080C94E4030C94E4030C94DE0E34
:100080000C94E4030C94E4030C94E403AB15AE1558
:10009000DD161016DD16DD16DD16D616DD16DD169C
:1000A00098169D16A216AD16C216054F0F4F174F84
:1000B000194F1B4F1D4F1F4F214F244F6E616E0074
:1000C000696E660000407A10F35A00A0724E18095B
:1000D0000010A5D4E80000E87648170000E40B54AF
:1000E000020000CA9A3B000000E1F505000080967E
:1000F0009800000040420F000000A08601000000B0
:10010000102700000000E803000000006400000069
:1001100000000A00000000000100000000002C7632
:10012000D888DC674F0823DFC1DFAE59E1B1B7964D
:10013000E5E3E453C63AE651997696E8E6C28426AA
:10014000EB898C9B62ED407C6FFCEFBC9C9F40F286
:10015000BAA56FA5F490055A2AF75C936B6CF96702
:100160006DC11BFCE0E40D47FEF520E6B500D0EDC7
:10017000902E0300943577050080841E080000202F
:100180004E0A000000C80C333333330F986E1283CD
:100190001141EF8D2114893BE65516CFFEE6DB18A1
:1001A000D1844B381BF77C1D901DA4BBE424203266
:1001B00084725E228100C9F124ECA1E53D274E4105
:1001C0004E494E495459494E46CDCCCC3D0AD723D1
:1001D0003C17B7D13877CC2B329595E6241FB14F19
:1001E0000A000020410000C84200401C4620BCBE5E
:1001F0004CCA1B0E5AAEC59D744572726F722C208C
:10020000696E64657465726D696E61746520626F94
:100210006F7420766563746F722025640D0A004147
:10022000540024504D544B3331342C302C312C306D
:100230002C312C302C302C302C302C302C302C30DD
:100240002C302C302C302C302C302C302C302C30CE
:100250002A32380D0A0024504D544B3330302C31A3
:100260003030302C302C302C302C302A31430D0AD9
:100270000024504D544B3235312C35373630302A2E
:1002800032430D0A0052096AD53036A538BF40A363
:100290009E81F3D7FB7CE339829B2FFF87348E430B
:1002A00044C4DEE9CB547B9432A6C2233DEE4C9588
:1002B0000B42FAC34E082EA16628D924B2765BA25F
:1002C000496D8BD12572F8F66486689816D4A45CC3
:1002D000CC5D65B6926C704850FDEDB9DA5E15469E
:1002E00057A78D9D8490D8AB008CBCD30AF7E458F7
:1002F00005B8B34506D02C1E8FCA3F0F02C1AFBD53
:100300000301138A6B3A9111414F67DCEA97F2CFF0
:10031000CEF0B4E67396AC7422E7AD3585E2F937DA
:10032000E81C75DF6E47F11A711D29C5896FB76228
:100330000EAA18BE1BFC563E4BC6D279209ADBC0D3
:10034000FE78CD5AF41FDDA8338807C731B11210EB
:10035000592780EC5F60517FA919B54A0D2DE57AC8
:100360009F93C99CEFA0E03B4DAE2AF5B0C8EBBB14
:100370003C83539961172B047EBA77D626E1691422
:100380006355210C7D637C777BF26B6FC530016711
:100390002BFED7AB76CA82C97DFA5947F0ADD4A2FD
:1003A000AF9CA472C0B7FD9326363FF7CC34A5E5C9
:1003B000F171D8311504C723C31896059A07128026
:1003C000E2EB27B27509832C1A1B6E5AA0523BD65A
:1003D000B329E32F8453D100ED20FCB15B6ACBBE7F
:1003E000394A4C58CFD0EFAAFB434D338545F9022B
:1003F0007F503C9FA851A3408F929D38F5BCB6DA40
:100400002110FFF3D2CD0C13EC5F974417C4A77EE5
:100410003D645D197360814FDC222A908846EEB8F6
:1004200014DE5E0BDBE0323A0A4906245CC2D3AC30
:10043000629195E479E7C8376D8DD54EA96C56F475
:10044000EA657AAE08BA78252E1CA6B4C6E8DD7433
:100450001F4BBD8B8A703EB5664803F60E6135575B
:10046000B986C11D9EE1F8981169D98E949B1E87AB
:10047000E9CE5528DF8CA1890DBFE6426841992D50
:100480000FB054BB1678A46AD756B7C7E8DB702004
:1004900024EECEBDC1AF0F7CF52AC6874713463088
:1004A000A8019546FDD8988069AFF7448BB15BFFF2
:1004B000FFBED75C892211906B937198FD8E4379B2
:1004C000A62108B44962251EF640B340C0515A5EC9
:1004D00026AAC7B6E95D102FD65314440281E6A1BF
:1004E000D8C8FBD3E7E6CDE121D60737C3870DD5C2
:1004F000F4ED145A4505E9E3A9F8A3EFFCD9026F1E
:10050000678A4C2A8D4239FAFF81F6718722619DF4
:100510006D0C38E5FD44EABEA4A9CFDE4B604BBBB1
:10052000F670BCBFBEC67E9B28FA27A1EA8530EFD5
:10053000D4051D880439D0D4D9E599DBE6F87CA22E
:100540001F6556ACC4442229F497FF2A43A723947D
:10055000AB39A093FCC3595B6592CC0C8F7DF4EF53
:10056000FFD15D84854F7EA86FE0E62CFE14430129
:10057000A3A111084E827E53F735F23ABDBBD2D704
:100580002A91D386EB0000891112239B322446ADB9
:10059000573665BF74488CC19D5AAFD3BE6CCAE54F
:1005A000DB7EE9F7F88110080193331A22A5562C57
:1005B00047B7753E64C99C408DDBBF52AEEDDA642F
:1005C000CBFFF976E802218B30100299132667AF32
:1005D000763444BD554AADC3BC588ED19F6EEBE70F
:1005E000FA7CC8F5D983310A2091121803A7772E17
:1005F00066B5543C45CBBD42ACD99E508FEFFB66EF
:10060000EAFDD874C904428D5316619F702004A975
:10061000153227BB364CCEC5DF5EEDD7FC6888E1CE
:10062000997AABF3BA85520C4397711E60A11428D6
:1006300005B3373A26CDDE44CFDFFD56ECE99860AE
:1006400089FBBB72AA06638F7214409D512225ABB1
:10065000343006B9174EEFC7FE5CCCD5DD6AA9E38E
:10066000B8788AF19B87730E6295501C41A3352A96
:1006700024B1163807CFFF46EEDDDC54CDEBB9626E
:10068000A8F99A708B088481951AA793B62CC2A5F5
:10069000D33EE1B7F04008C919522BDB3A644EED66
:1006A0005F766DFF7C899400859BB712A6ADD2243E
:1006B000C3BFF136E0C1184809D33B5A2AE55E6C46
:1006C0004FF77D7E6C0AA583B4188691972EE3A719
:1006D000F23CC0B5D14229CB38500AD91B666FEF26
:1006E0007E744CFD5D8BB502A499961087AFF326FE
:1006F000E2BDD034C1C3394A28D11A580BE77F6E06
:100700006EF55C7C4D0CC685D71EE597F42880A15C
:10071000913AA3B3B2444ACD5B5669DF78600CE9E5
:100720001D722FFB3E8DD604C79FF516E4A99020BD
:1007300081BBB332A2C55A4C4BD7795E68E11C68C5
:100740000DF33F7A2E0EE787F61CC495D52AA1A398
:10075000B03882B193466BCF7A5448DD59622DEBA5
:100760003C700EF91F8FF706E69DD414C5ABB1227D
:10077000A0B9923083C77B4E6AD5585C49E33D6A85
:100780002CF11E780F002092D33A11241FBECFEF18
:10079000D0E4DEBFCDBF17E0A0E0B1E0EAEFF2EFBA
:1007A00000E00BBF02C007900D92A036B107D9F749
:1007B0001AE3A0E6B7E001C01D92A33DB107E1F73F
:1007C0000E94706D0C947B790C9400000C94406432
:1007D0008091D33A80FF02C082E007C082FF02C04E
:1007E00083E003C083FF08C081E0809360078091AD
:1007F00021188823F9F018C01F928F9389EF91E098
:100800009F938F930E948E7687EE95E00E94A2764A
:100810000F900F900F900F9080917307811101C07E
:10082000299A0E942510F8CF0E946254811102C0BB
:100830000E94D51080917307811101C02A9A0895F2
:10084000789481E797E10E949C09E5ECFAE381E75F
:1008500097E193838283918380830E94DF060E94C5
:10086000990F0E94001082E09CE00E946C0B26EE23
:1008700033E042E05CE0BA0188E298E10E94B960AE
:1008800041E757E162E07CE088E298E10E94216262
:100890000E94B9110E94714F81E797E10E945D505B
:1008A0000E94F0100C94E80310923C170895809178
:1008B0003617813019F480E00E947908809136174C
:1008C000823019F480E00E949508809136178330B9
:1008D00019F480E00E94B10880913617843019F431
:1008E00080E00E94CC0880913617853019F480E0B2
:1008F0000E94E60880913617863019F480E00E9445
:10090000000980913617873019F480E00E941A0997
:1009100080913617883019F480E00E943409809164
:100920003617893019F480E00E944E0980913617FD
:100930008A3019F480E00E946809809136178B3064
:1009400019F480E00E948209809136178C3019F4E6
:1009500080E00C94330A08958FEF80939F1A44E14E
:1009600050E060E070E04093531750935417609349
:1009700055177093561746E950E060E070E04093D9
:1009800023185093241860932518709326184AE072
:1009900050E060E070E04093141850931518609395
:1009A00016187093171890EC90933D178093631767
:1009B00080E8809322181092131810922B1710922F
:1009C000211881E08093701780939A1A9BE090938E
:1009D000361780933517089580E008950895089597
:1009E0009FEF980F9C3010F48093361708950C9465
:1009F000B10F0C94AB0F811103C01092131808951E
:100A000081E0809313180895811103C010922B1771
:100A1000089581E080932B170895811103C01092EF
:100A200070170895813011F0823011F4809370179F
:100A30000895811103C010923C170895813011F080
:100A4000823011F480933C170895811103C01092F5
:100A50009A1A0895813011F0823011F480939A1A15
:100A60000895F894F999FECF92BD81BD60BDFA9AC0
:100A70007894F99A0895F894F999FECF92BD81BDC2
:100A8000F89A789480B50895AF92BF92CF92DF9292
:100A9000EF92FF920F931F93CF93DF93CDB7DEB703
:100AA000E0970FB6F894DEBF0FBECDBFCE01019622
:100AB0007C0100E010E05C01C8010E943B05D70109
:100AC0008D937D010F5F1F4F00311105A9F77E0146
:100AD000B1E2EB0EF11C670100E110E0C8010E94D9
:100AE0003B05F60181936F010F5F1F4F0032110527
:100AF000A9F720E830E040E050E0B501CE01419692
:100B00000E940060FE01719680E18E0F2191D70155
:100B10009D917D01291304C08E13F8CF81E001C09F
:100B200080E0E0960FB6F894DEBF0FBECDBFDF9138
:100B3000CF911F910F91FF90EF90DF90CF90BF90DA
:100B4000AF900895EF92FF920F931F93CF93DF938F
:100B5000CDB7DEB760970FB6F894DEBF0FBECDBF3E
:100B6000CE0101967C0100E010E0C8010E943B0527
:100B7000F70181937F010F5F1F4F00311105A9F726
:100B80008C8180939F1A2D8130E0AAE0B0E00E9412
:100B90002D73609353177093541780935517909348
:100BA00056172E8130E00E942D73609323187093A6
:100BB000241880932518909326182F8130E00E94E6
:100BC0002D736093141870931518809316189093D2
:100BD0001718888580933D178985809363178A85C8
:100BE0008093221881E09B85911101C080E0809361
:100BF000131881E09C85911101C080E080932B1730
:100C000081E09D85911101C080E0809321188E853F
:100C1000809370178F8580939A1A888980933617EE
:100C200060960FB6F894DEBF0FBECDBFDF91CF91B7
:100C30001F910F91FF90EF9008950F931F93CF9303
:100C4000DF931F92CDB7DEB78C0169830E943B050D
:100C50006981861741F0C8010F90DF91CF911F91F4
:100C60000F910C9431050F90DF91CF911F910F914F
:100C70000895CF93DF93C0E0D0E060E0CE010E9402
:100C80001D062196C032D105C1F7DF91CF9108959D
:100C9000CF92DF92EF92FF920F931F93CF93DF9348
:100CA000CDB7DEB7E0970FB6F894DEBF0FBECDBF6D
:100CB0008E010F5F1F4F80E2F80111928A95E9F7CC
:100CC00081E089838A838B8380919F1A8C836091D2
:100CD00053177091541780915517909156172AE029
:100CE000C22ED12CE12CF12CA70196010E94677332
:100CF0002D8360912318709124188091251890916C
:100D00002618A70196010E9467732E83609114181C
:100D1000709115188091161890911718A7019601D7
:100D20000E9467732F8380913D1788878091631796
:100D30008987809122188A87809113188B878091E8
:100D40002B178C87809121188D87809170178E8743
:100D500080919A1A8F8780913617888B20E830E02F
:100D600040E050E0B801CE0181960E940060DE01B3
:100D70005196FE01B19680E18E0F91919D938E1355
:100D8000FCCFE12CF12CF80161918F01C7010E9489
:100D90001D06FFEFEF1AFF0A80E2E816F10499F74B
:100DA000E0960FB6F894DEBF0FBECDBFDF91CF91B6
:100DB0001F910F91FF90EF90DF90CF9008951092C8
:100DC000351710929E1A0E944405882319F00E943C
:100DD000A20504C00E94AC040E94480610923C1771
:100DE0000C9457040C94480681E0809321180C94CD
:100DF00048060E94480698E088E10FB6F894A89546
:100E0000809360000FBE90936000FFCF1092211876
:100E10000E94F90681E080939E1A089510929E1A0E
:100E20000895CF92DF92EF92FF920F931F93CF938B
:100E3000DF93CDB7DEB7A0970FB6F894DEBF0FBE35
:100E4000CDBFCE0101967C0100E010E06C01C8012D
:100E50000E943B05F70181937F010F5F1F4F003216
:100E60001105A9F760E270E0C6010E94C06AA09671
:100E70000FB6F894DEBF0FBECDBFDF91CF911F91AB
:100E80000F91FF90EF90DF90CF9008959091C80060
:100E900095FFFCCF8093CE0081E090E00895809193
:100EA000C80087FFFCCF8091CE0090E00895CF93DB
:100EB000DF931F92CDB7DEB789830E942510898109
:100EC0009091C00095FFFCCF8093C60081E090E038
:100ED0000F90DF91CF9108958091C00087FFFCCFE4
:100EE0000E9425108091C60090E00895811103C0F2
:100EF0008091C00004C0813031F48091C800881F07
:100F00008827881F089580E008958091C00087FF9A
:100F100005C00E9425108091C60008958FEF0895A6
:100F20008091C80087FF03C08091CE0008958FEFA5
:100F300008951F920F920FB60F9211240BB60F92C5
:100F40002F933F934F935F936F937F938F939F93D1
:100F5000AF93BF93EF93FF938091C00087FF47C08B
:100F60000E94251020912717309128178091231770
:100F7000909124172817390759F420912917309197
:100F80002A1780912517909126172817390769F19C
:100F90002091291730912A178091271790912817AF
:100FA00001972817390709F10E948507E091291751
:100FB000F0912A1780832091291730912A17809168
:100FC0002517909126172817390729F480912317A0
:100FD0009091241705C08091291790912A170196A6
:100FE00090932A178093291702C00E949007FF91BF
:100FF000EF91BF91AF919F918F917F916F915F9191
:101000004F913F912F910F900BBE0F900FBE0F90FD
:101010001F9018951F920F920FB60F9211240BB6C6
:101020000F922F933F934F935F936F937F938F9381
:101030009F93AF93BF93EF93FF938091C80087FF77
:1010400045C020911E1130911F1180911A1190916D
:101050001B112817390759F42091201130912111C3
:1010600080911C1190911D112817390769F1209169
:1010700020113091211180911E1190911F11019723
:101080002817390709F10E949007E0912011F0918B
:1010900021118083209120113091211180911C1108
:1010A00090911D112817390729F480911A119091F8
:1010B0001B1105C0809120119091211101969093F0
:1010C00021118093201102C00E949007FF91EF919F
:1010D000BF91AF919F918F917F916F915F914F9150
:1010E0003F912F910F900BBE0F900FBE0F901F904E
:1010F000189581110CC084E08093C50081E1809334
:10110000C4008091C0008D7F8093C000089581301D
:1011100059F484E08093CD0081E18093CC008091EC
:10112000C8008D7F8093C800089581110CC082E0B3
:101130008093C50088E08093C4008091C0008D7FBB
:101140008093C0000895813059F482E08093CD00EF
:1011500088E08093CC008091C8008D7F8093C80088
:10116000089581110CC081E08093C50083E08093D5
:10117000C4008091C0008D7F8093C00008958130AD
:1011800051F48093CD0083E08093CC008091C8001F
:101190008D7F8093C800089581110BC01092C50007
:1011A00081E88093C4008091C0008D7F8093C0004F
:1011B0000895813051F41092CD0081E88093CC00E5
:1011C0008091C8008D7F8093C800089581110BC065
:1011D0001092C50086E58093C4008091C0008D7F89
:1011E0008093C0000895813051F41092CD0086E5BF
:1011F0008093CC008091C8008D7F8093C8000895B3
:1012000081110BC01092C50080E48093C4008091CE
:10121000C0008D7F8093C0000895813051F41092FA
:10122000CD0080E48093CC008091C8008D7F8093B6
:10123000C800089581110BC01092C5008AE2809306
:10124000C4008091C0008D7F8093C00008958130DC
:1012500051F41092CD008AE28093CC008091C800B6
:101260008D7F8093C800089581110BC01092C50036
:1012700080E28093C4008091C0008D7F8093C00085
:101280000895813051F41092CD0080E28093CC001B
:101290008091C8008D7F8093C800089581110BC094
:1012A0001092C50085E18093C4008091C0008D7FBD
:1012B0008093C0000895813051F41092CD0085E1F3
:1012C0008093CC008091C8008D7F8093C8000895E2
:1012D00081110BC01092C5008FE08093C4008091F3
:1012E000C0008D7F8093C0000895813051F410922A
:1012F000CD008FE08093CC008091C8008D7F8093DB
:10130000C800089581110BC01092C5008AE0809337
:10131000C4008091C0008D7F8093C000089581300B
:1013200051F41092CD008AE08093CC008091C800E7
:101330008D7F8093C8000895CF92DF92EF92FF9245
:101340000F931F93CF93DF93CDB7DEB76C970FB694
:10135000F894DEBF0FBECDBF6C018CE1D6011D92AB
:101360008A95E9F782E2E82E81E1F82E80E096E0A6
:10137000F7019C01119221503040E1F70DE817E18F
:1013800080E8D8011D928A95E9F780E00E948209E1
:101390001092CD008AE08093CC00E8ECF0E08081F0
:1013A0008D7F808396E09093C20088E98093C1008E
:1013B0009093CA008093C9008EE0FE013F96DF0142
:1013C000282F1D922A95E9F79E012F5F3F4FD901E3
:1013D0001D928A95E9F783E08A8B47E557E0588F9D
:1013E0004F8B4CE657E05A8F498F9EE0D601019013
:1013F0000D929A95E1F78C8386E497E09A87898726
:101400008FE497E09C878B878EE0F901D6011E96CA
:1014100001900D928A95E1F7E3E2F7E1F182E08233
:10142000F782E682F582E48281E297E19383828308
:10143000EAE1F1E1118300831783068315830483B6
:101440008CE098E1938382836C960FB6F894DEBFAC
:101450000FBECDBFDF91CF911F910F91FF90EF9005
:10146000DF90CF90089581110BC01092C5008AE0E3
:101470008093C4008091C00082608093C000089572
:10148000813051F41092CD008AE08093CC0080919D
:10149000C80082608093C80008950F931F93CF9374
:1014A000DF93182FC091B11AD091B21A8BA181117C
:1014B0002FC080E290E098A38F8F1E8E1D8E1C8E11
:1014C00081E08BA38CA380917307811101C02898C0
:1014D00080917307811101C0299A209123183091BE
:1014E00024184091251850912618A0EBB4E00E94D2
:1014F0003C736056704F8F4F9F4F20E43FE140E0B8
:1015000050E00E9467733D8B2C8B81E080936607CF
:101510000FB7F894209114183091151840911618AF
:1015200050911718A0EBB4E00E943C736056704FC6
:101530008F4F9F4F20E43FE140E050E00E946773EF
:101540003F8B2E8B0FBFE091B11AF091B21A4FB7BB
:10155000F894E356FD4F24813581808191812817CD
:10156000390739F426813781828193812817390719
:1015700079F066817781248135812150310991E0AC
:1015800080E06217730709F090E0292F382F02C01E
:1015900021E030E04FBF232BB1F6E091B11AF0917A
:1015A000B21A2FB7F894E356FD4FA681B7811C936A
:1015B00046815781828193814817590719F48081A8
:1015C000918103C0868197810196978386832FBF7F
:1015D00081E090E0DF91CF911F910F910895E0910C
:1015E000B11AF091B21A4FB7F89426A937A980AD75
:1015F00091AD4FBF28173907D9F0E091B11AF0919A
:10160000B21A9FB7F894A6A9B7A924A935A9A21719
:10161000B30719F422A933A905C0A6A9B7A99D014A
:101620002F5F3F4F37AB26AB8C919FBF90E0089563
:101630008FEF9FEF089587B18FEF87B910929000D9
:1016400089E18093910080E194E0909397008093EA
:10165000960080E280937100559A549A08951092F2
:1016600031171092321710923317109234171092CC
:101670006C1710926D1710926E1710926F171092D0
:101680004317109242171092800089E180938100E5
:1016900082E298E0909387008093860080E28093B6
:1016A0007C00089882B112B8EEE7F0E0808181609A
:1016B000808387E080937B008DEE80937A0008958D
:1016C000109231171092321710923317109234176C
:1016D0000E942F0B0C941B0B0F931F93CF93DF9340
:1016E000CDB7DEB72E970FB6F894DEBF0FBECDBFD5
:1016F0008C0187E195E0D801FC011D923197E9F753
:101700001093B21A0093B11A80E290E0D80190963B
:101710009C938E935F9792961C921E929197C8010C
:101720008D9696969C938E9395979C969C938E936C
:101730009B979A969C938E939997049698969C93D0
:101740008E9397970996D3969C938E93D297D9961A
:101750009C938E93D897D7969C938E93D6978E59B9
:101760009D4FD5969C938E93D4970996F801E35696
:10177000FD4F9183808397838683958384838E59DD
:101780009D4F9383828385E090E0019711F1D8010A
:101790009B96ED91FC919C9710829B964D915C914C
:1017A0009C9797962D913C9198974217530749F42F
:1017B00095962D913C9196979C963C932E939B9752
:1017C000E4CFF80123A534A52F5F3F4F34A723A70B
:1017D000DCCF0E94600B8EE0FE013196DF01282FE6
:1017E0001D922A95E9F793E09C832DE43AE03A872D
:1017F00029872FEE3AE03C872B87D80101900D9284
:101800008A95E1F72E960FB6F894DEBF0FBECDBFD6
:10181000DF91CF911F910F910895CF93DF93FC013A
:10182000808D8111BEC0828D811190C0DF01A356D1
:10183000BD4F14964D915C91159716962D913C9144
:1018400017974217530749F426893789232B29F420
:101850001092660713A214A251C0938D911101C07A
:10186000148E91E0938F248935892115310579F5FE
:1018700014964D915C91159716962D913C91179762
:101880004217530741F414A22689378921503109A0
:10189000378B268B20C01496CD91DC91159712962C
:1018A0002D913C911397C217D30721F42D913C91B0
:1018B000119707C01496CD91DC9115979E012F5F6B
:1018C0003F4F15963C932E931497988105C0215055
:1018D0003109358B248B9EE7918F918D9B3181F55A
:1018E00014964D915C91159716962D913C911797F2
:1018F0004217530749F41092660713A29091730799
:1019000091116FC029986DC01496CD91DC911597F7
:1019100012968D919C911397C817D90721F48D9138
:101920009C91119706C01496CD91DC911597CE012C
:10193000019615969C938E9314978881818F04C08D
:101940009E57923008F4138E81E0828F838D278D0D
:1019500030A1882379F0848D853060F0148E203298
:10196000310519F080E290E002C08BE390E090A393
:10197000878F15C0828D918D982321F0948D9F5F64
:10198000948F0BC0148E2032310519F020E230E024
:1019900002C02BE330E030A3278F880F828F80E1D5
:1019A000808F278D30A1858D968D820F931FAC017E
:1019B0005170568F458F208D2150208F9927803868
:1019C000910530F02FEF30E0B901681B790BCB01A6
:1019D000FC01E85FFE4F80814F3F510511F008F098
:1019E0008095DF91CF910895CF93DF93FC01809193
:1019F0009E1A8823E9F020916207309163072F5FD8
:101A00003F4F3093630720936207809164078617E6
:101A10001CF4609364070CC02036310548F0109226
:101A200063071092620718161CF4815080936407B4
:101A3000DF01A65FBA4F2D913C911197EF01C85F6E
:101A4000DA4F39832883C1A5D2A587A190A5C817ED
:101A5000D90719F485A196A104C0C1A5D2A5CE01CC
:101A6000019692A781A798819602C001112497FD43
:101A7000039695958795959587958D939C93DF0112
:101A8000A25FBA4F5C9111964C911197EF01C45F20
:101A9000DA4F58834983820F931F252F342F37FF46
:101AA00002C02F5F3F4F35952795820F931F8D936F
:101AB0009C93DF01A05FBA4F21E030E018161906B1
:101AC00014F420E030E08D919C911197880F991FBC
:101AD000822B932B11969C938E93C3A5D4A56883D8
:101AE00023A534A587A190A52817390719F485A146
:101AF00096A103C083A594A5019694A783A78D9171
:101B00009C9111979C0136952795369527958227AC
:101B1000932783709927EF01CE5EDA4F039769F41C
:101B2000888199818032910510F4019601C0019756
:101B30009983888312A211A205C081A192A1019666
:101B400092A381A38881998108968034910518F425
:101B50009983888323C18F73992799838883EF01A1
:101B6000CC5EDA4F8881880F88839C9197702BEF29
:101B7000290F233010F0933011F48160888388811D
:101B8000982F96958927809581709685990F892B36
:101B900086878E37C9F526A937A982A993A9281760
:101BA000390739F420AD31AD84A995A92817390733
:101BB00039F120AD31AD86A997A9019728173907CA
:101BC000F9F0A0ADB1AD8EE78C9320AD31AD84A915
:101BD00095A92817390719F482A993A903C080ADE4
:101BE00091AD019691AF80AF91E0918B8389863062
:101BF00020F4128A8F5F838B01C0928B81E09FC09B
:101C0000118A128A138A9AC08F778F3711F4118A3A
:101C10000FC0928980917307992321F0811105C02B
:101C2000289A03C0811101C028988189811103C0BD
:101C3000128A138AB3C08685982F9F739E3309F446
:101C4000ADC080FF03C080898068808B97859F5FCF
:101C500097878089983008F477C092E8980F92307F
:101C600010F08B3199F526A937A982A993A92817D5
:101C7000390739F420AD31AD84A995A92817390762
:101C8000E1F020AD31AD86A997A901972817390752
:101C9000A1F0A0ADB1AD8BE18C9320AD31AD84A9A5
:101CA00095A92817390719F482A993A903C080AD13
:101CB00091AD019691AF80AF09C0118A128A138A43
:101CC00080917307811104C0289803C081E001C08E
:101CD00080E046A957A922A933A94217530739F42E
:101CE00040AD51AD24A935A942175307F1F040ADDD
:101CF00051AD26A937A92150310942175307A9F040
:101D00009089A0ADB1AD9C9340AD51AD24A935A94A
:101D10004217530719F422A933A904C020AD31ADED
:101D20002F5F3F4F31AF20AF0AC0118A128A138A4A
:101D300080917307811102C0289801C080E0108A49
:101D40001786882321F02AC08695808B27C0DF0163
:101D5000AB5EBA4F8D919C911197816011969C93C7
:101D60008E9326A937A982A993A92817390739F490
:101D700020AD31AD84A995A92817390741F020ADD0
:101D800031AD86A997A901972817390739F480AD95
:101D900091AD97AB86AB11961C921E9281A192A138
:101DA0008136910540F012A211A2128A8091730728
:101DB000811101C02898DF91CF9108951F920F9251
:101DC0000FB60F9211240BB60F922F933F934F93A0
:101DD0005F936F937F938F939F93AF93BF93EF9393
:101DE000FF9380916607882379F08091B11A9091D2
:101DF000B21A0E940D0C88B980917307811101C03D
:101E0000299A5D9A5C9809C080917307811101C07D
:101E100029988FE788B95D985C9AFF91EF91BF91FF
:101E2000AF919F918F917F916F915F914F913F9172
:101E30002F910F900BBE0F900FBE0F901F90189513
:101E40001F920F920FB60F9211240BB60F922F9381
:101E50003F934F935F936F937F938F939F93AF9332
:101E6000BF93EF93FF9380E286BB80916607811159
:101E700015C06091790060588091B11A9091B21AA2
:101E80000E94F40C809161078F5F803618F4809374
:101E9000610704C0109261070E9456120E945510FB
:101EA0008091311790913217A0913317B091341768
:101EB0000196A11DB11D8093311790933217A09305
:101EC0003317B093341780914217909143170196BE
:101ED000909343178093421780389542B8F08091D1
:101EE0006C1790916D17A0916E17B0916F170196B6
:101EF000A11DB11D80936C1790936D17A0936E1761
:101F0000B0936F171092431710924217FF91EF9101
:101F1000BF91AF919F918F917F916F915F914F9101
:101F20003F912F910F900BBE0F900FBE0F901F90FF
:101F300018958AB1806C8AB983EA8093B00081E0F9
:101F40008093B100809122188093B3008091631731
:101F50008093B40008958093221880958093B300F5
:101F60000895809363178093B40008952FB7F89471
:101F70006091311770913217809133179091341717
:101F80002FBF08958F929F92AF92BF92CF92DF9210
:101F9000EF92FF92CF93DF9300D000D0CDB7DEB7A2
:101FA0009B01AC0169833A834B835C830E94B60F2B
:101FB0006B017C01AAE0B0E029813A814B815C8110
:101FC0000E943C734B015C010E94B60FDC01CB0107
:101FD0008C199D09AE09BF0988159905AA05BB058D
:101FE00098F30F900F900F900F90DF91CF91FF908B
:101FF000EF90DF90CF90BF90AF909F908F9008951B
:1020000080E991E0A0E0B0E080936F0790937007C3
:10201000A0937107B093720784B18F6184B985B1C1
:10202000807E85B983EC84BD81E085BD80913D17BC
:1020300087BD089581E08093730708951092730718
:10204000089580933D1787BD08958091730781118E
:1020500011C02C9A0E94B60FDC01CB0180579E4F15
:10206000AF4FBF4F8093670790936807A0936907AE
:10207000B0936A07089580917307811101C02C986D
:1020800008952C9A0E94B60FDC01CB0180579E4F19
:10209000AF4FBF4F8093670790936807A09369077E
:1020A000B0936A0708952C9808950F931F93809119
:1020B0006B0790916C07A0916D07B0916E074091EE
:1020C0006F075091700760917107709172078417C4
:1020D0009507A607B707D4F00E94B60F00916707CF
:1020E000109168072091690730916A070617170752
:1020F0002807390714F40E943B1010926B071092C6
:102100006C0710926D0710926E070BC00196A11D0F
:10211000B11D80936B0790936C07A0936D07B093EC
:102120006E071F910F910895CF9381E080937307FD
:102130002A980E9453102998289868EC70E080E053
:1021400090E00E94C20FC2E02A9A62E370E080E051
:1021500090E00E94C20F2A980E94411062E370E052
:1021600080E090E00E94C20F0E945310289A62E320
:1021700070E080E090E00E94C20F2898299A62E304
:1021800070E080E090E00E94C20F299862E370E066
:1021900080E090E00E94C20FC13011F0C1E0D4CFC6
:1021A0002A9A10927307CF9108950E94251080916A
:1021B0007307811101C02A9864EF71E080E090E01C
:1021C0000E94C20F0E943B1080917307811101C0D1
:1021D0002A9A64EF71E080E090E00E94C20FE5CFA0
:1021E00081B1866081B90E94D64F811103C081B14F
:1021F000886181B9089582B186958170089582B110
:1022000082FB882780F908950E94D64F811105C06E
:1022100082B183FB882780F9089580E008950E94A9
:10222000D64F811104C082B182958170089580E0FB
:102230000895119A0895129A08950E94D64F811117
:1022400001C0139A08950E94D64F811101C0149ABB
:10225000089511980895129808950E94D64F8111FB
:1022600001C0139A08950E94D64F811101C0149A9B
:1022700008950E94D64F811107C00E94FB10811162
:102280000C9429110C94191108950E94D64F8111B4
:1022900007C00E94FF1081110C942B110C941B118C
:1022A00008950E94041181110C942D110C941D119C
:1022B0000E940F1181110C9433110C9423118F92F1
:1022C0009F92AF92BF92CF92DF92EF92FF920F93C5
:1022D0001F939B01AC018FB7F894C0903117D09039
:1022E0003217E0903317F09034178FBFAAE0B0E0B8
:1022F0000E943C732FB7F89480903117909032175A
:10230000A0903317B09034172FBF950184010C199A
:102310001D092E093F09061717072807390750F32B
:102320001F910F91FF90EF90DF90CF90BF90AF90F3
:102330009F908F900895CF93C2E080917307811191
:1023400001C02A986AEF70E080E090E00E945F117F
:1023500080917307811101C02A9A64E170E080E0E6
:1023600090E00E945F11C13011F0C1E0E6CFCF9143
:10237000089584B1806A84B9269881E58CBD0E9A4F
:102380000F98179A08950E949B110E94BD548111C5
:102390000C94D5100895CF938130D1F4C4E080918E
:1023A0007307811101C02A9861E470E080E090E039
:1023B0000E945F1180917307811101C02A9A6EE11A
:1023C00070E080E090E00E945F11C15041F705C0CD
:1023D000811103C0CF910C949B11CF91089581E09E
:1023E0000E94CB110C94205780910001869581703A
:1023F00091E08927089581E090910001911180E09A
:1024000008958091780708950E94F411882389F037
:1024100041E062EB76E083EB9AE10E940A3581119C
:1024200004C081E08093780702C010927807809101
:102430007807089540E062EB76E080E090E00E944B
:102440000A35811104C01092780781E0089580E078
:1024500008950E94041281110C94EF1108950E94B6
:102460001A1281110C94C311089580917707882363
:1024700021F0109277070E94291280917607882315
:1024800021F0109276070E942F1280917507882301
:1024900021F0109275070E94EF1180917407882334
:1024A00021F0109274070C94C3110895CF9380917A
:1024B00079078F5F809379070E94F21680E00E946F
:1024C000C814809300018091790762E30E944773EA
:1024D000911116C010927907C0917807C11107C0F9
:1024E0000E94F411882319F081E0809377070E94FD
:1024F000F411811105C0CC2319F081E08093760797
:10250000CF9108950F931F93CF93DF93CDB7DEB78D
:1025100060970FB6F894DEBF0FBECDBF2FB7F8940B
:1025200080916C1790916D17A0916E17B0916F17F5
:102530002FBF8D879E87AF87B88BBE016F5F7F4FA0
:10254000CE010D960E940B6B4B81552747FD509590
:10255000652F752F8BE0440F551F661F771F8A95D7
:10256000D1F78C81992787FD9095A92FB92FDC0190
:1025700099278827482B592B6A2B7B2B8A819927EF
:1025800087FD9095A92FB92F35E0880F991FAA1FB5
:10259000BB1F3A95D1F7482B592B6A2B7B2B89818E
:1025A000992787FD9095A92FB92FB695A79597954F
:1025B0008795482B592B6A2B7B2B8F819885805DC3
:1025C0009740AA2797FDA095BA2FF9E1880F991F88
:1025D000AA1FBB1FFA95D1F7482B592B6A2B7B2BCF
:1025E0008E818F5F992787FD9095A92FB92F15E1CF
:1025F000880F991FAA1FBB1F1A95D1F78A019B014B
:10260000082B192B2A2B3B2BC901B80160960FB65A
:10261000F894DEBF0FBECDBFDF91CF911F910F9118
:1026200008958EBD0DB407FEFDCF8EB50895169AA0
:102630008FEF0C9411130F931F93CF93DF93EC0143
:102640008B0184E180937B078FEF0E9411138F3FF2
:1026500029F480917B078111F7CF1EC08E3FE1F4F2
:102660008FEF8EBD0DB407FEFDCF9EB598838EBD56
:102670000DB407FEFDCF22969EB5FE0131979083E3
:102680000250110971F78FEF0E9411138FEF0E9412
:10269000111381E090E002C080E090E0DF91CF91E3
:1026A0001F910F91089582E380937A078FEF0E9424
:1026B0001113282F8F3F21F080917A078111F6CFD7
:1026C00081E090E02F3F11F080E090E00895CF93FB
:1026D000DF9300D0CDB7DEB716988FEF0E941113AD
:1026E0000E945313009739F489839A830E94171329
:1026F00089819A8102C081E090E00F900F90DF9174
:10270000CF910895FF920F931F93CF93DF93C82F1C
:10271000D42F152F062FF72E87FF09C040E050E079
:10272000BA0187E30E9482138230A0F5CF77CC30C4
:1027300099F48C2F80640E9411138F2D0E94111325
:10274000802F0E941113812F0E9411138D2F0E9440
:102750001113CC2369F008C00E9417130E9467135D
:10276000892B39F78FEF16C0C83021F081E003C004
:1027700085E901C087E80E941113CC3019F48FEF6E
:102780000E941113CAE08FEF0E94111387FF02C04D
:10279000C150C9F7DF91CF911F910F91FF9008951C
:1027A0001F93CF93DF93EC01162F0E9453130097D2
:1027B00059F1812F0E9411131D3F21F1CE019E5F1F
:1027C00028812EBD0DB407FEFDCF2296FE01319764
:1027D00020812EBD0DB407FEFDCFC817D90781F7A4
:1027E0008FEF0E9411138FEF0E9411138FEF0E9441
:1027F00011138F7131E020E0853009F030E0832F34
:10280000922F02C081E090E0DF91CF911F91089557
:10281000DF92EF92FF920F931F93CF93DF9300D03D
:1028200000D0CDB7DEB78111A6C01CBC80910101DC
:1028300081FD9EC084B1806A84B9269881E58CBDF3
:1028400082E58CBD1AE08FEF0E9411131150D9F769
:1028500040E050E0BA0180E00E948213813009F02C
:1028600075C084E680937B074AEA51E060E070E03F
:1028700088E00E948213813009F040C08E010F5F12
:102880001F4F780184E0D82ED00E8FEF0E941113D5
:10289000F70181937F01DE12F8CF8B81813009F03F
:1028A00055C08C818A3A09F051C080917B07811113
:1028B00006C080917B07882309F448C00AC040E025
:1028C00050E060E070E489EA0E9482138111EDCF4C
:1028D000F0CF40E050E0BA018AE30E9482138111F8
:1028E00035C08FEF0E941113F80181938F01DE1222
:1028F000F8CF898186FD2CC014E02BC040E050E069
:10290000BA0189EA0E948213823018F011E001E0D6
:1029100002C012E009EA80917B07811105C0809115
:102920007B07882399F009C040E050E0BA01802F6E
:102930000E9482138111EFCFF2CF40E052E060E0BD
:1029400070E080E10E948213882319F010E001C03A
:102950001CE010937C070E941713112341F0809113
:1029600001018E7F8093010180E58CBD01C01CBCFC
:102970008091010101C081E00F900F900F900F90A6
:10298000DF91CF911F910F91FF90EF90DF9008950D
:10299000811103C080910101089581E00895EF92B3
:1029A000FF920F931F93CF937B01BA01A90181116D
:1029B00038C001151105A9F18091010180FD33C0D6
:1029C00080917C0783FD07C089E0440F551F661F77
:1029D000771F8A95D1F70230110510F4C1E101C0CB
:1029E000C2E18C2F0E948213811114C060E072E05A
:1029F000C7010E941B13892B29F08EEFF81A015092
:102A00001109A1F7C23131F440E050E0BA018CE085
:102A10000E9482130E94171381E0012B29F480E0A9
:102A200003C084E001C083E0CF911F910F91FF901C
:102A3000EF900895CF92DF92EF92FF920F931F9342
:102A4000CF93DF93EB0169017A01811156C0011523
:102A5000110509F452C08091010180FD50C08091A0
:102A6000010182FD4EC080917C0783FD07C099E083
:102A7000CC0CDD1CEE1CFF1C9A95D1F70130110522
:102A800099F4B701A60188E10E94821381112EC03A
:102A90006EEFCE010E94D01331E020E0892B09F0C7
:102AA00030E0032F122F22C0867031F0A80160E0C1
:102AB00070E087E90E948213B701A60189E10E94B4
:102AC0008213811113C06CEFCE010E94D013892BA9
:102AD00021F0DE5F01501109B1F76DEF80E090E069
:102AE0000E94D013892B11F401E010E00E9417130B
:102AF00081E0012B39F480E005C084E003C083E06D
:102B000001C082E0DF91CF911F910F91FF90EF9074
:102B1000DF90CF900895EF92FF920F931F93CF9382
:102B2000DF93CDB7DEB760970FB6F894DEBF0FBE68
:102B3000CDBF811147C18091010180FD45C17A015E
:102B4000862F90E08F30910508F037C1FC01EA5BD9
:102B5000FF4F0C94E8730E94671324C140E050E0DB
:102B6000BA0189E00E948213882311F011E026C186
:102B700060E170E0CE0101960E941B13892BB1F336
:102B800099819295969596959370888549852A8521
:102B90009130E1F48F7390E0A0E0B0E0DC01992780
:102BA00088270196A11DB11D50E0542F4427BA017A
:102BB000620F711D860F971FA11DB11DFAE0880FCE
:102BC000991FAA1FBB1FFA95D1F7ABC04295469536
:102BD00046954370F4E08F9FC0011124840F911D2E
:102BE00001964F81437050E0542F4427550F550FE5
:102BF000840F951FA0E0B0E03E81432F4F703B85CE
:102C0000331F3327331F340F2370220F230F275016
:102C100004C0880F991FAA1FBB1F2A95D2F781C035
:102C200010917C0740E050E0BA0112FF2BC08DE804
:102C30000E94821381119ACF8FEF0E94111360E1DD
:102C400070E0CE0101960E941B13892B09F48ECFF0
:102C500010E38FEF0E9411131150D9F72B852295A5
:102C60002F7080E190E0A0E0B0E004C0880F991FD1
:102C7000AA1FBB1F2A95D2F7F70180839183A283F5
:102C8000B3839CC089E00E94821381116FCF60E101
:102C900070E0CE0101960E941B13892B09F466CFC8
:102CA0008B852C8511FF1FC0221F2227221F022F78
:102CB00010E00F5F1F4F8F73080F111D080F111DBC
:102CC0008E858295869586958370815002C0000F0F
:102CD000111F8A95E2F720E030E0F70100831183AD
:102CE0002283338323C0922F9370229526952770D9
:102CF00030E0F8E09F9F200D311D11242F5F3F4FE2
:102D00008C7790E095958795959587950196289F66
:102D1000A001299F500D389F500D1124CA01A0E039
:102D2000B0E0F70180839183A283B38310E046C0B3
:102D300080917C07FA018083F9CF40E050E0BA012E
:102D400089E004C040E050E0BA018AE00E948213AA
:102D500081110CCF60E170E022C040E050E0BA0188
:102D60008AE30E948213811101CF87010C5F1F4FFC
:102D70008FEF0E941113F70181937F01E017F10794
:102D8000B9F7D4CF40E050E0BA018DE80E94821339
:102D90008111ECCE8FEF0E94111360E470E0C70147
:102DA0000E941B1311E0892B49F0C0CF1CBC8091FD
:102DB0000101816080930101B9CF14E00E941713D3
:102DC000812F03C084E001C083E060960FB6F894C1
:102DD000DEBF0FBECDBFDF91CF911F910F91FF904E
:102DE000EF90089580917B07882319F0815080939C
:102DF0007B0780917A07882319F0815080937A07A6
:102E000090910101892F8B7F079B03C0892F897FB8
:102E100001C08360809301010895FC016381862FC6
:102E200090E0A0E0B0E0BA2FA92F982F8827228148
:102E3000822BBA2FA92F982F88272181822BBA2F76
:102E4000A92F982F88272081BC01CD01622B0895DE
:102E50000F93FC01278130E040E050E060E070E03B
:102E600080E090E008E00E94F173A6812A2B0E9486
:102E7000F173A5812A2B0E94F173A4812A2B0E9451
:102E8000F173A3812A2B0E94F173A2812A2B0E9445
:102E9000F173A1812A2B0E94F173E0812E2B0F91F7
:102EA0000895FC01408351836283738308950F93D7
:102EB0001F93CF93DF93FC01D22FC32FB42FA52FE5
:102EC000CB01008398014D2F5C2F6B2F7A2F08E0E8
:102ED0000E940C7421830E940C7422830E940C7443
:102EE00023830E940C7424830E940C7425830E9407
:102EF0000C7426830E940C742783DF91CF911F915D
:102F00000F910895480F591FFC016193CF01E417F9
:102F1000F507D1F70895DC01FB012D91819130E097
:102F2000B901681B7109CB014150510911F000979B
:102F3000A1F308950F931F93FC019A01AB01225056
:102F40003109410951098789908DA18DB28D029770
:102F5000A109B109281739074A075B0768F4A18559
:102F6000B2850E943C7303A514A525A536A5600F64
:102F7000711F821F931F03C060E070E0CB011F919F
:102F80000F910895FC019C01255F3F4F80E0982F31
:102F900090FB979597F98191890FE217F307B9F79D
:102FA0000895CF93DF93FC01418150E04F5F5F4F65
:102FB00065E0440F551F6A95E1F780E090E060E01E
:102FC00070E062307105A1F0DC01A170BB2780FFC9
:102FD00002C0A0E0B0E8EF01C60FD71F2881969588
:102FE0008795EC01C20FD11DCE018A0F9B1F02C035
:102FF00063E070E06F5F7F4F6417750710F3DF9138
:10300000CF910895CF93DF93DC01ED91FC9111975F
:103010003097D1F09F012F5F3F4FE90121978881C1
:10302000803278F08A33B9F7908180ED890F8A3049
:1030300058F43296E217F30739F4903329F42D93BC
:103040003C9380E090E002C08FEF9FEFDF91CF9143
:1030500008950F931F93CF93DF93EC018B01892B7E
:10306000F1F0E881F9813097D1F080818823B9F0BF
:103070002A813B81858196812817390781F48181D6
:103080000E94C81480FD0BC02881398180E0F801BE
:1030900031832083DF91CF911F910F91089589E0B3
:1030A00020E030E0F4CF0F931F93CF93DF93EA013A
:1030B000890141E653E00E94894E8F3F910541F01E
:1030C00038F00230110558F09883898382E008C0F7
:1030D000009729F0012B19F0888381E001C080E07E
:1030E000DF91CF911F910F9108952F923F924F92B0
:1030F0005F926F927F928F929F92AF92BF92CF9288
:10310000DF92EF92FF920F931F93CF93DF93DC0137
:103110008D909C901197FB01128E9E960D911D91A2
:103120002D913C91D197012B022B032B09F4A1C1C6
:10313000EB018C01D4018C91843009F09AC01D966A
:10314000ED90FC901E97A12CB12CB0E4CB2ED12C8D
:1031500000E010E080E090E088248A94912CD70170
:1031600093962C9130E0A216B30608F044C0B0E666
:10317000CB16B2E0DB0608F043C096012F7133276F
:10318000232B19F4E2E0CE0ED11CF701EC0DFD1D4E
:103190004180512C542C44242081422AF2E0CF0E4D
:1031A000D11C2FEFA21AB20A009729F49201385DC0
:1031B00021153840F0F0A801465E5F4F4C0F5D1FAF
:1031C000612C712CA0E0B0E0DC0199278827BC01BC
:1031D000CD0164297529862997299401201B310B7B
:1031E0000E94531890E0009759F0080F191F412CC6
:1031F000512CC201B4CF892B19F40115110521F40A
:103200008FE38A8F01E010E0FE01E00FF11F128EC4
:103210001D86F70184818C8784FD05C0C701C8968F
:103220000E94281708C020E030E040E050E060E055
:1032300070E080E090E0288339834A835B836C836D
:103240007D838E839F83D7011D968C911D9790E07F
:10325000982F88271C962C911C97822B9B878A87F6
:103260001F968C911F9790E0982F88271E962C917F
:10327000FDC0F801E05CFF4F80819181A281B381A4
:103280008F3F9F4FAF4FBF4F09F44AC0A12CB12CC5
:10329000C12CD12CE12CF12C66246A94712CD40120
:1032A0001B96ED91FC911C97EA0DFB1D808191818D
:1032B000009771F1C114D10429F49C01385D2115E6
:1032C0003840F8F0A701465E5F4F4C0F5D1FA0E04D
:1032D000B0E01601412C512C210133242224BC01E1
:1032E000CD01622973298429952993012E193F095B
:1032F0000E94531890E0009749F0E80EF91E80E014
:1033000090E022E0A20EB11C6C01C9CFE12CF12C9F
:10331000CD2811F0E12CF12CFE01EE0DFF1D128ED7
:1033200020E030E080E090E06EE2AC014F5F5F4F64
:10333000D801D296ED91FC91D397E80FF91F8081C7
:1033400090E080329105B9F08530910511F485EE59
:1033500090E04930510549F42C30310530F4FE013C
:10336000E20FF31F65872F5F3F4FFE01E20FF31F50
:1033700085872F5F3F4FCA014B305105B1F6FE01E3
:10338000E20FF31F15868A8D811142C0232B31F085
:10339000BE01665E7F4FE0E0F0E010C08FE38A8FF1
:1033A000E1E0F0E029C090E09C01215431092A318C
:1033B000310558F0DB018D93BD013196CB010D979E
:1033C000DC018C918111EFCF17C0D801D2962D91DD
:1033D0003C91D397D9011C962C9130E0E930F1054E
:1033E00018F448E050E002C040E150E024233523C7
:1033F000232B01F38096DECFEC0FFD1F128ED80138
:10340000D296ED91FC91D3978485811101C01D86E0
:10341000D801D296ED91FC91D39783858C87D29673
:103420008D919C91D3974C960E940D174B015C0196
:1034300068839982AA82BB821C821D821E821F829F
:10344000D801D296ED91FC91D397878990E0982F7F
:1034500088272689822B9B878A87D296ED91FC91BB
:10346000D397818D90E0982F8827208D822B998784
:103470008887DF91CF911F910F91FF90EF90DF90A0
:10348000CF90BF90AF909F908F907F906F905F9004
:103490004F903F902F9008950F931F93CF93DF93FA
:1034A000EC01E881F9818F010F5F1F4F6081862F4A
:1034B00090E0009731F061E673E00E94BC4E009707
:1034C00031F019830883BC0180E090E003C06FEF06
:1034D0007FEFCB01DF91CF911F910F9108950F9353
:1034E0001F93CF93DF938C01C0E0D0E0F80161918E
:1034F00071918F016115710529F180E090E00E94C2
:10350000D14EAE0141705527C0FF02C040E050E8E7
:10351000D695C7959B0133272C0F3D1F240F351FD0
:10352000A9014170552720FF02C040E050E83695C0
:103530002795C72FDD27B9016C0F7D1FEB01C40F45
:10354000D51FD4CFCE01DF91CF911F910F91089558
:10355000FB01480F591F2191DC012D93CD01A417C8
:10356000B507C9F70895FB01438D50E0542F442758
:10357000928D492B60E070E0833079F4858990E08A
:10358000982F88272489822BA0E0B0E0DC019927BE
:103590008827482B592B6A2B7B2BCB01BA01089526
:1035A000FB01228F338FDC018C91833029F4CA0117
:1035B000AA27BB27848B958B08950F931F93CF93D6
:1035C000DF938C01EB01DC018D919C91C4960E94EC
:1035D0000D176E837F8388879987F8018081918199
:1035E000C8960E9428172A873B874C875D876E877D
:1035F0007F87888B998BD801ED91FC9181A1827096
:103600008D831E8A1F8A188E198EDF91CF911F918C
:103610000F9108958F929F92AF92BF92EF92FF9277
:103620000F931F93CF93DF93FC0123812223C1F1DA
:10363000EC017C01F7E3EF0EF11C2BA93CA94DA98D
:103640005EA901E010E0B70189810E941A1581117D
:1036500029C01B828BA99CA9ADA9BEA90B8D1C8D6D
:103660002D8D3E8D8BA09CA0ADA0BEA0AC01BD0158
:10367000481959096A097B094017510762077307FE
:1036800078F46A81623061F4A9019801280F391F2A
:103690004A1F5B1F01E010E0B70189810E941A15E3
:1036A00080E001C081E0DF91CF911F910F91FF90E9
:1036B000EF90BF90AF909F908F9008958F929F92C0
:1036C000AF92BF92FF920F931F93CF93DF93EC01C2
:1036D0004A015B018BA99CA9ADA9BEA9481759074E
:1036E0006A077B07E9F0CE010E940A1BF82E8111C0
:1036F00018C001E010E0A5019401BE01695C7F4F94
:1037000089810E94CF14882331F0FF24F394882408
:103710008A94982C54018BAA9CAAADAABEAA01C077
:10372000F12C8F2DDF91CF911F910F91FF90BF90C2
:10373000AF909F908F9008954F925F926F927F927B
:103740008F929F92AF92BF92CF92DF92EF92FF92B1
:103750000F931F93CF93DF936C0148015901DB0155
:10376000CA010297A109B1098C019D014CE036956F
:103770002795179507954A95D1F7F60147A550A9C2
:1037800061A972A9400F511F621F731F8C019D0117
:10379000E3E03695279517950795EA95D1F7E80167
:1037A000D1708770992711E001C0110F8A95EAF74F
:1037B00001E02A013B01FFEF4F1A5F0A6F0A7F0AFF
:1037C000C6010E945E1B811125C0F601EC0FFD1F92
:1037D00097A9492F412321E030E011F420E030E0A7
:1037E000E216F306C9F0912797ABF6010383F1E0E7
:1037F0008F1A9108A108B10881F0110F31F72196B5
:1038000011E0C11592E0D90701F7C0E0D0E0B301A3
:10381000A201CFCF81E001C082E0DF91CF911F9163
:103820000F91FF90EF90DF90CF90BF90AF909F905F
:103830008F907F906F905F904F9008952F923F925E
:103840004F925F926F927F928F929F92AF92BF92B0
:10385000CF92DF92EF92FF920F931F93CF93DF935C
:1038600000D000D01F92CDB7DEB7FC016A017B010A
:10387000208131813C832B834230510561057105E4
:1038800008F464C1AB81BC8157964D915D916D91F7
:103890007C915A97C416D506E606F70608F056C17D
:1038A0008C91823009F45CC018F4813041F04EC133
:1038B000833009F47EC0843009F4A5C047C1860175
:1038C000169507950C0D1D1DC801892F9927869502
:1038D000EB81FC8143A154A165A176A1480F591F3A
:1038E000611D711DCF010E945E1B882321F06FEFC7
:1038F0007FEFCB0134C15801FFEFAF1ABF0A11703F
:10390000EB81FC81E00FF11F17A9C501892F9927D1
:103910008695AB81BC8193964D915D916D917C9123
:103920009697480F591F611D711DCD010E945E1BA6
:103930008111DDCFB1E0BB22EB81FC81EA0DFB1DE3
:1039400087A9612F70E0782BC0FE06C024E0769531
:1039500067952A95E1F701C07F7080E090E0FFC095
:1039600077276F2D5E2D4D2DEB81FC8183A194A1D6
:10397000A5A1B6A1480F591F6A1F7B1FCF010E9446
:103980005E1B8111B4CFCC0CDD1CE894C0F8F1E0D3
:10399000DF22EB81FC81EC0DFD1D90AD692F70E005
:1039A000762F6627EB81FC81EC0DFD1D87A9682B26
:1039B000D4CFEB81FC8183A194A1A5A1B6A1B701CD
:1039C000A60117E076956795579547951A95D1F713
:1039D000480F591F6A1F7B1FCF010E945E1B811178
:1039E00086CFCC0CDD1CCC0CDD1CFCEFCF22F1E033
:1039F000DF22C601C7962B813C81820F931F0E9454
:103A00000D179F70ACC032844384548465847684DF
:103A100007851089B189BD83232D342D452D562D61
:103A2000672D702F812F9B2FA0E025800E944F745F
:103A300041F04681578160857185452B462B472B88
:103A400011F4211083C0468157816085718546013C
:103A50005701841A950AA60AB70AAB81BC81199648
:103A60000D90BC91A02DBA83A983B2E02B1230C077
:103A7000232D342D452D562D672D702F812F9D819F
:103A8000AFEF0E94317409E00E940C74B22FA32F93
:103A9000E42F152F89819A819C0140E050E06B2F23
:103AA0007A2F8E2F912F0E946773281539054A05AA
:103AB0005B0508F44BC082169306A406B50609F40C
:103AC0004AC0C701B6016F5F7F4F8F4F9F4F47C0FE
:103AD00093E0291209C082899389A489B58988163F
:103AE0009906AA06BB0668F386899789A08DB18DD1
:103AF000892B8A2B8B2B79F5EB81FC8183A194A1F7
:103B0000A5A1B6A1B701A60127E0769567955795BF
:103B100047952A95D1F7480F591F6A1F7B1FCF0180
:103B20000E945E1B8111E3CECC0CDD1CCC0CDD1C95
:103B3000FCEFCF22F1E0DF22C601C7962B813C814A
:103B4000820F931F0E940D179F7709C061E070E0FC
:103B500080E090E004C06FEF7FEF8FEF9FE70F9062
:103B60000F900F900F900F90DF91CF911F910F91B9
:103B7000FF90EF90DF90CF90BF90AF909F908F908D
:103B80007F906F905F904F903F902F9008954F924D
:103B90005F926F927F928F929F92AF92BF92CF92DD
:103BA000DF92EF92FF920F931F93CF93DF93EC017D
:103BB0006A017B0108811981F8018081843029F034
:103BC00080E090E0A0E2B0E004C080E090E0A0E0FF
:103BD000B0E1C816D906EA06FB0610F082E0AAC0DA
:103BE000D701C6018F719927AA27BB27892B8A2B5A
:103BF0008B2BA1F7CEA2DFA2E8A6F9A68E809F802C
:103C0000A884B98481149104A104B10469F5F80170
:103C100080818330E8F4F80187819085A0E0B0E0EE
:103C2000B701A601E5E07695679557954795EA9522
:103C3000D1F7481759076A077B0780F6F80187A173
:103C400090A5A1A5B2A58EA79FA7A8ABB9AB48C068
:103C5000F80187A190A5A1A5B2A51D820097A10595
:103C6000B105C9F24C015D01F80141845284612C17
:103C7000712C39E0440C551C661C771C3A95D1F721
:103C8000B501A401C414D504E604F70410F1CE0173
:103C90000E941E1C4B015C016F3F7F4F8F4F9F4F57
:103CA00009F447C082E088169104A104B10408F425
:103CB00095CFF8018789908DA18DB28D88169906D0
:103CC000AA06BB0608F08ACFC418D508E608F7088C
:103CD000D7CFC8010E949A176EA77FA788AB99AB70
:103CE0008AA69BA6ACA6BDA68EA59FA5A8A9B9A984
:103CF0000097A105B10509F471CFB701A60129E02C
:103D000076956795579547952A95D1F7840F951F16
:103D1000A61FB71F8EA79FA7A8ABB9ABF1E0DF2204
:103D200087E3C80ED11CC00ED11EDBAACAAA80E050
:103D300001C081E0DF91CF911F910F91FF90EF9033
:103D4000DF90CF90BF90AF909F908F907F906F90BB
:103D50005F904F900895CF93DF93EC011B828FEF1C
:103D60009FEFDC018BAB9CABADABBEABCE010E9439
:103D70005E1B811134C0FE01EA5CFD4F808190E042
:103D8000982F882731972081822B85359A4A49F5CB
:103D90004BE050E065E076E0CE01C7960E948B17BD
:103DA000892B09F18FA98B3E19F0885E8230F8F4D7
:103DB00043E050E061E176E0CE0183599F4F0E94DD
:103DC0008B17892B91F045E050E065E176E0CE015C
:103DD00087579F4F0E948B17892B49F406C084E0B8
:103DE00007C083E005C081E003C080E001C082E03D
:103DF000DF91CF9108952F923F924F925F926F92F1
:103E00007F928F929F92AF92BF92CF92DF92EF926A
:103E1000FF920F931F93CF93DF93CDB7DEB7E29757
:103E20000FB6F894DEBF0FBECDBF6B01142FDB01C0
:103E30001D921C920E9402187C0197FD84C2FC0115
:103E4000EE0FFF1FE152F44F208031802114310426
:103E500009F47BC2F601318220821E7FD1018C9150
:103E6000882369F011968C910E94C81480FD07C0C8
:103E7000112309F46CC282FF6AC28AE02CC4F101EA
:103E80001082E1828E2D0E94081480FD62C21123EF
:103E900011F082FDF2CF40E050E0BA01C1010E9472
:103EA000AB1E823009F043C08E010F5F1F4F7801B7
:103EB000810103501E4F510123ECA21A2DEFB20ACB
:103EC0006701F80134978081882321F0C8010E949E
:103ED0000D1703C060E070E0CB01D6016D937D93B8
:103EE0008D939D936D01005F1F4F0A151B0549F7C8
:103EF0008E010F5E1F4FD7014D905D906D907D90AC
:103F00007D01498E5A8E6B8E7C8E41145104610462
:103F1000710441F0B301A201C1010E94AB1E8230C5
:103F200010F411C083E0E016F10629F7D0C3198E12
:103F30001A8E1B8E1C8E843011F481E0CCC382302B
:103F400010F08DE0C8C3F101EE5BFF4F813051F4FA
:103F5000910129583F4F81918111F3CFE217F30767
:103F6000D1F7F9C1D101AD5BBF4F8C9190E0982F93
:103F700088272081822B8115924019F7F101E25B9D
:103F8000FF4F8080912C982C882431978081882A3B
:103F90008114910419F0A12CB12C07C0C101855ADC
:103FA0009F4F0E940D174B015C01D1015B968D92D2
:103FB0009D92AD92BC925E97F101E95BFF4F00814B
:103FC000F10102838FEF800F823008F0BACFEC5BF3
:103FD000FF4F1081812F90E01A969C938E93199732
:103FE000009709F4AECF9C0121503109822393231D
:103FF000892B09F0A6CF3596808190E0382F2227B3
:10400000319780812901482A5A8A498A18965C92F8
:104010004E921797C2018F709927892B09F091CF83
:104020003396808190E0982F882731972081822BCA
:104030002C01612C712C892B39F4C101895A9F4FB5
:104040000E940D172B013C01F101EA5BFF4FE0815B
:10405000F0E0FE2FEE27D101AB5BBF4F8C91E82B38
:10406000309709F46ECFA02FB0E0A50194010E9413
:104070003C736D8F7E8F8F8F98A36F01E12CF12C95
:10408000C9A2DAA2EBA2FCA289899A89B4E096952A
:104090008795BA95E1F7C80ED91EE11CF11CD7012E
:1040A000C601CD8CDE8CEF8CF8A0C80ED91EEA1E9E
:1040B000FB1E4C145D046E047F0408F442CFC30160
:1040C000B2016C197D098E099F09212F30E040E073
:1040D00050E00E946773211531054105510509F42F
:1040E00030CF263F0FEF300740070FE0500708F0B2
:1040F00028CF263F1FEF31074105510540F4263FE9
:104100008FE038074105510520F411E003C013E0AA
:1041100001C012E029013A0192E0490E511C611CD4
:10412000711CD10157964D925D926D927C925A9777
:10413000298D3A8D4B8D5C8D5F962D933D934D93DC
:104140005C939297DA01C90129A13AA14BA15CA124
:10415000820F931FA41FB51FF10183A394A3A5A3EE
:10416000B6A3498D5A8D6B8D7C8D4C0D5D1D6E1DDA
:104170007F1D43A754A765A776A7133029F5EE59ED
:10418000FF4F808190E0982F882731972081822BE4
:10419000892B09F0D6CEC988DA88CD2809F0D1CE8E
:1041A000C1018D599F4F0E940D17D10197966D93B4
:1041B0007D938D939C939A97E2E0440C551C661C6A
:1041C000771CEA95D1F72DC0C988DA88CD2809F483
:1041D000B8CECD8CDE8CEF8CF8A0C80ED91EEA1EAE
:1041E000FB1EC7A2D0A6E1A6F2A6123029F4440C09
:1041F000551C661C771C15C0A3E0B0E0A30192011A
:104200000E943C73DC01CB01B695A79597958795E5
:10421000E1E04E22552466247724480E591E6A1E7A
:104220007B1EFFEF4F0EF1E05F1E611C711C59E019
:1042300076946794579447945A95D1F784149504CB
:10424000A604B70408F47DCE8FEF9FEFDC01F101E7
:10425000838B948BA58BB68B8787908BA18BB28B2E
:1042600080E88483133009F052C0E859FF4F808101
:1042700090E0982F882731972081822B019709F0B1
:1042800046C0498D5A8D6B8D7C8D4F5F5F4F6F4F50
:104290007F4FC1010E945E1B811139C0D10114966C
:1042A0001C92F101EA5CFD4F808190E0982F8827F5
:1042B00031972081822B85359A4A49F5C101C796ED
:1042C0000E940D17623572458146914401F5C10186
:1042D000855E9D4F0E940D1762377247814491465B
:1042E000B1F4C101815E9D4F0E940D17D10153961B
:1042F0006D937D938D939C935697C1018D5D9D4FDA
:104300000E940D17F1016787708B818B928BD10111
:104310001C938091DD0B9091DE0B01969093DE0B48
:104320008093DD0B16969C938E9315978DE797E0FF
:104330001C969C938E931B978DE799E01E969C93F9
:104340008E931D9704C08BE0C6C18CE0C4C180E091
:10435000C2C183E0C0C1F101E056FF4F808190E00F
:10436000982F882731972081822B8115914009F061
:10437000E8CDF101ED55FF4F81E090E0008002C0F3
:10438000880F991F0A94E2F78115924009F0D9CD60
:10439000C10181589F4F0E942817498C5A8C6B8C01
:1043A0007C8C53014201C12CD12C7601498A9A8A16
:1043B000AB8ABC8ACD8ADE8AEF8AF88E5201CB881E
:1043C000DC88E12CF12C00E010E00E9428742D8F95
:1043D00039A3742E652E562E472E8DA39EA3562DDF
:1043E000652D742D2F3F3F4F4F4F5F4F6105710576
:1043F0008105910511F008F0A4CDC10185579F4FAB
:104400000E940D17D1015B966D937D938D939C93C4
:104410005E97F101EB55FF4F8081F101828381307E
:1044200009F08FCDEC55FF4F01E010E0008002C095
:10443000000F111F0A94E2F71A961C930E93199716
:104440000115110509F47DCDC1018D569F4F0E94C4
:104450000D179B01AC016E3FBFEF7B078B07BFE7DA
:104460009B0708F06ECDDC01CB010296A11DB11DAA
:10447000F101878B908FA18FB28F898C9A8CAB8C36
:10448000BC8C878E90A2A1A2B2A2C10181579F4F7E
:104490002FA338A749A75AA70E940D17860E971E6B
:1044A000A81EB91E898A9A8AAB8ABC8AF10183A6A2
:1044B00094A6A5A6B6A6C10189579F4F0E940D17C5
:1044C000898C9A8CAB8CBC8C860E971EA81EB91E4C
:1044D000F10183A294A2A5A2B6A2A988BA88CB882A
:1044E000DC8845015601C12CD12C76018BA69CA6F7
:1044F000ADA6BEA6CFA6D8AAE9AAFAAAD8012FA12E
:1045000038A549A55AA50E943C737B018C0120E087
:1045100030E0A901698BFA8A0B8B1C8B2D8B3E8BAB
:104520004F8B588F9401A50160E070E080E090E02F
:1045300057016801E12CF12C00E010E00E94287482
:1045400059016A017B018C012D8D39A1472D562D12
:10455000652D742D8DA19EA10E94467408F4F1CCA6
:10456000C10189569F4F0E940D17D10197966D93F7
:104570007D938D939C939A97C12CD12C760100E06A
:1045800010E00115110511F5F10181859285A0E07A
:10459000B0E0C816D906EA06FB0608F0D2CC47A15F
:1045A00050A561A572A5C1010E949A17AB01BC017B
:1045B0004C0D5D1D6E1D7F1DC1010E945E1B811192
:1045C000BCCCFFEFCF1ADF0AEF0AFF0AF101E00FC0
:1045D000F11F87A9813821F0005E1F4F1170D1CFE4
:1045E000C801855B9F4F820D931D0E940D176B01C3
:1045F0007C01623071058105910508F4A2CCF101BE
:104600008789908DA18DB28DC816D906EA06FB0662
:1046100008F097CCA185B285A701960122503109F7
:10462000410951090E943C7303A514A525A536A58F
:10463000DC01CB01800F911FA21FB31F87A790AB96
:10464000A1ABB2ABF10183A194A1A5A1B6A1B70121
:10465000A601E7E07695679557954795EA95D1F7D6
:10466000480F591F6A1F7B1FC1010E945E1B8111E9
:1046700064CCC6018F779927880F991F880F991FDF
:10468000C796820D931D0E940D176F3FFFEF7F07A6
:104690008F079F0771F00FEFC01AD00AE00AF00AE7
:1046A0006C157D058E059F0509F04BCC6B017C01D7
:1046B000C9CFD10153966D937D938D939C9356975B
:1046C000F1016787708B818B928B14E020CE843050
:1046D00009F037CC32CCE2960FB6F894DEBF0FBEAD
:1046E000CDBFDF91CF911F910F91FF90EF90DF90A1
:1046F000CF90BF90AF909F908F907F906F905F9082
:104700004F903F902F9008952F923F924F925F923B
:104710006F927F928F929F92AF92BF92CF92DF92D1
:10472000EF92FF920F931F93CF93DF9300D000D0AF
:10473000CDB7DEB71C016A017B0128013901423087
:1047400051056105710508F4EEC0FC018789908D63
:10475000A18DB28D481759076A077B0708F0E3C09F
:104760008081823009F47AC018F4813029F0DBC0EE
:10477000853008F495C0D7C05A01B694A794A40E0A
:10478000B51EC501892F99278695D10193964D9124
:104790005D916D917C919697480F591F611D711D18
:1047A000C1010E945E1B182F8111BEC04501BFEFE1
:1047B0008B1A9B0AE1E0BE22A20CB31CD701C601F2
:1047C00081709927AA27BB2789839A83AB83BC83EF
:1047D000C0FE0BC0D501D7968C91282F2F70B0E169
:1047E0004B9EC0011124822B01C0842DF50187ABA3
:1047F00081E0D10113968C93139793964D915D911F
:104800006D917C919697C401892F99278695480FC1
:10481000591F611D711DC1010E945E1B182F81115E
:1048200083C0B1E09B22F101E80DF91D89819A81D5
:10483000AB81BC81892B8A2B8B2B41F054E0769481
:104840006794579447945A95D1F706C067A9607F3B
:10485000852D8F70462E482A47AA60C077276F2D76
:104860005E2D4D2DF10183A194A1A5A1B6A1480F04
:10487000591F6A1F7B1FC1010E945E1B182F8111E7
:1048800053C0CC0CDD1CE894C0F8F1E0DF22F1014C
:10489000EC0DFD1D47AAF101EC0DFD1D50AE3EC013
:1048A000F10183A194A1A5A1B6A127E07695679512
:1048B000579547952A95D1F7480F591F6A1F7B1FB7
:1048C000C1010E945E1B182F81112EC0D1018C9155
:1048D000CC0CDD1CCC0CDD1C8430A1F0BFE07B22B5
:1048E000C6018C7F9170C796820D931D0E940D1793
:1048F000DC01CB0188279927AA27B07F482A592AAB
:104900006A2A7B2AECEFCE22E1E0DE22C601C796BE
:10491000B301A201820D931D0E94511781E0D101C4
:1049200013968C9301C012E0812F0F900F900F907F
:104930000F90DF91CF911F910F91FF90EF90DF903B
:10494000CF90BF90AF909F908F907F906F905F902F
:104950004F903F902F9008952F923F924F925F92E9
:104960006F927F928F929F92AF92BF92CF92DF927F
:10497000EF92FF920F931F93CF93DF9300D000D05D
:10498000CDB7DEB79C838B836A017B0109831A83D1
:10499000322E232E82E0882E912CA12CB12C412C7A
:1049A000512C32014394EB81FC8186899789A08D3B
:1049B000B18D0097A105B105A1F182309105A10546
:1049C000B10558F095018401081B190B2A0B3B0B0C
:1049D0000C0D1D1D2E1D3F1D04C009811A81232DA4
:1049E000322DB301A201481B590B6A0B7B0B4C0DF6
:1049F0005D1D6E1D7F1DEB81FC81808191810E9478
:104A0000842381110FC0EB81FC8186899789A08D59
:104A1000B18D0197A109B109868B978BA08FB18FBA
:104A2000C2CF80E00F900F900F900F90DF91CF9149
:104A30001F910F91FF90EF90DF90CF90BF90AF90BC
:104A40009F908F907F906F905F904F903F902F90AE
:104A500008952F923F924F925F926F927F928F9222
:104A60009F92AF92BF92CF92DF92EF92FF920F93FD
:104A70001F93CF93DF9300D000D000D0CDB7DEB727
:104A80001C016A017B0128013901DC010D90BC91F8
:104A9000A02DBE83AD83423051056105710510F430
:104AA00082E003C1ED81FE818789908DA18DB28D59
:104AB000481759076A077B0798F7012B022B032B2E
:104AC00029F4C982DA82EB82FC825BC0AD81BE81AF
:104AD0008C91843021F4F1018581823091F30FEFC4
:104AE0001FEF9801B301A2018D819E810E94842352
:104AF000882339F3DAC0613071058105910581F2AF
:104B00006F3F7F4F8F4F9F4F09F46EC0AD81BE81C5
:104B10008C91843009F06AC0ED81FE81838994898B
:104B2000A589B6894789508D618D728D4250510992
:104B30006109710984179507A607B70750F4019614
:104B4000A11DB11D838B948BA58BB68B8481816055
:104B50008483FFEFCF1ADF0AEF0AFF0AC814D904D3
:104B6000EA04FB0409F04EC075016401ED81FE8189
:104B70008789908DA18DB28D88169906AA06BB06ED
:104B800068F4B701A601C1010E941E1C4B015C0123
:104B9000611571058105910509F0ADCFAD81BE812B
:104BA0008C91843009F080C04BC0F1018581811166
:104BB0005EC0C680D780E084F184C414D504E604C6
:104BC000F70409F46DC0B701A601C1010E941E1CC3
:104BD000623071058105910508F462CF6F3FFFEFE8
:104BE0007F078F079F07B1F581E05FC000E010E00D
:104BF0009801B701A601CD010E948423882309F4FE
:104C00008BCF53C0AD81BE818C918430A1F49701CC
:104C1000860189819A81AB81BC81081B190B2A0B03
:104C20003B0BE12CF12CAC01BD018D819E810E94DA
:104C30009C1B81113AC089829A82AB82BC8294CF3C
:104C4000411451046104710409F0AFCFD1011596EC
:104C50001C922AC02FEFC21AD20AE20AF20A6C157D
:104C60007D058E059F0501F56B017C01A6CF833084
:104C7000D9F4F10146815781608571854416550646
:104C80006606770688F082899389A489B589840F9E
:104C9000951FA61FB71F84159505A605B70520F01B
:104CA00082E0D10115968C9380E026960FB6F89499
:104CB000DEBF0FBECDBFDF91CF911F910F91FF904F
:104CC000EF90DF90CF90BF90AF909F908F907F90AC
:104CD0006F905F904F903F902F9008958F929F928A
:104CE000AF92BF92CF92DF92EF92FF920F931F93FA
:104CF000CF93DF93EC014E815F8168857985CA8807
:104D0000DB88EC88FD88C40ED51EE61EF71E4C1508
:104D10005D056E057F0591F04A015B018FEF881AF2
:104D2000980AA80AB80A95018401888199810E948D
:104D30008423811105C0B501A401E9CF1D8280E063
:104D4000DF91CF911F910F91FF90EF90DF90CF9067
:104D5000BF90AF909F908F9008956F927F928F92A7
:104D60009F92AF92BF92CF92DF92EF92FF920F93FA
:104D70001F93CF93DF9300D000D0CDB7DEB73C01B7
:104D800049835A836B837C830E940A1B49815A8121
:104D90006B817C81811139C0C3010E949A174B013C
:104DA0005C01F30163AB74AB85AB96AB6301F7E3D6
:104DB000CF0ED11C40E052E060E070E0C6010E94DE
:104DC0008217E12CF12CF30181859285E816F90612
:104DD00048F081E0F30121853285E216F306B1F453
:104DE00080E014C001E010E0A50194012E0D3F1DEC
:104DF000411D511DB601F30181810E941A158111D7
:104E0000E8CF8FEFE81AF80ADECF81E00F900F901D
:104E10000F900F90DF91CF911F910F91FF90EF9026
:104E2000DF90CF90BF90AF909F908F907F906F90CA
:104E300008953F924F925F926F927F928F929F92CE
:104E4000AF92BF92CF92DF92EF92FF920F931F9398
:104E5000CF93DF93CDB7DEB72A970FB6F894DEBFB6
:104E60000FBECDBF6C0149835A836B837C83DC0109
:104E70000D90BC91A02DBA87A987452B462B472BB7
:104E8000B9F41F964D905D906D907C9052974114AF
:104E9000510461047104A9F157968D919D910D9073
:104EA000BC91A02D481659066A067B0670F129C0F0
:104EB00049815A816B817C810E941E1C4B015C01DF
:104EC000623071058105910508F43AC26F3F7F4F4A
:104ED0008F4F9F4F29F46FEF7FEF8FEF9FEF3BC214
:104EE000E985FA858789908DA18DB28D88169906FE
:104EF000AA06BB0608F429C249805A806B807C80D0
:104F000004C0412C512C32014394E985FA858389F0
:104F10009489A589B689892B8A2B8B2B11F460E0A3
:104F200010C2A985BA852C9157968D919D910D90AF
:104F3000BC91A02D243009F02FC1A3019201225071
:104F40003109410951092D833E834F8358870297C8
:104F5000A109B109281739074A075B0720F01D820C
:104F60001E821F8218868D809E80AF80B884332475
:104F70003394E985FA8587A590A9A1A9B2A9B501BD
:104F8000A4011CE076956795579547951A95D1F73A
:104F9000480F591F6A1F7B1FCF010E945E1B8111A2
:104FA0005DC0D501C40143E0B695A7959795879557
:104FB0004A95D1F79C013170C40187709927F32D70
:104FC00001C0FF0F8A95EAF78F2FA985BA855796FA
:104FD0004D915D916D917C915A977A018B01B2E070
:104FE000EB1AF10801091109E985FA85E20FF31FAF
:104FF00097A99823B501A4014F5F5F4F6F4F7F4F73
:105000004E155F056007710710F4880F06C040E079
:1050100050E0BA0120E032E080E0911106C0E2E009
:105020008E0E911CA11CB11C21C08D809E80AF8072
:10503000B884481559056A057B05A9F0882319F03D
:105040004A015B01D1CF2F5F3F4F211582E0380726
:1050500010F481E0F5CF4A015B018BCF88248A945C
:10506000982C540103C0812C912C5401D501C4010A
:105070000197A109B1098E3F9F4FAF4FBF4F08F075
:1050800064C1EE24E394F12C01E010E020E030E074
:10509000B501A40189859A850E949C1B823009F480
:1050A0004FC1813009F417CF29813A814B815C814E
:1050B000232B242B252B19F492E0D6011DC0F601D9
:1050C00095819230D9F4B301A2014F5F5F4F6F4FCA
:1050D0007F4F84169506A606B70681F04681578154
:1050E00060857185441A550A660A770AD601428A94
:1050F000538A648A758A93E015969C93F60195818C
:10510000923009F425C146895789608D718D0981D6
:105110001A812B813C810F5F1F4F2F4F3F4F80160D
:105120009106A206B306B1F441155105610571055A
:1051300029F04F5F5F4F6F4F7F4F04C042E050E058
:1051400060E070E0D60156964D935D936D937C932D
:105150005997FEC0452B462B472B49F481E090E040
:10516000A0E0B0E0F601868B978BA08FB18F950100
:10517000840149815A816B817C81C6010E94AC24E3
:105180008111DBC081E090E0A0E0B0E0F601868B09
:10519000978BA08FB18FA7C089809A80AB80BC808D
:1051A000481459046A047B0409F043C053014201C6
:1051B0002FEF821A920AA20AB20A88169906AA0644
:1051C000BB0628F092E0892E912CA12CB12CB501C0
:1051D000A401C6010E941E1C613071058105910564
:1051E00009F4AEC06F3F3FEF73078307930709F4DD
:1051F00072CE672B682B692BB9F0E985FA85878514
:105200009089A189B28982309105A105B10588F004
:105210004789508D618D728D84179507A607B70752
:1052200040F42C013D0105C081149104A104B10496
:10523000E9F553014201FFEF8F1A9F0AAF0ABF0A37
:10524000E985FA858789908DA18DB28D881699069A
:10525000AA06BB0660F0F2E04F1651046104710427
:1052600008F45DCE82E0882E912CA12CB12CB501E2
:10527000A401C6010E941E1C8B019C0161157105D1
:105280008105910599F0613071058105910529F03D
:105290006F3F7F4F8F4F9F4F19F4B801C9015BC01B
:1052A00084149504A604B70431F639CE0FEF1FEF2E
:1052B0009801B501A40189859A850E9484238111F2
:1052C0003CC089819A81AB81BC810097A105B10561
:1052D00051F095018401AC01BD0189859A850E9438
:1052E000842381112AC0A985BA851F968D929D922B
:1052F000AD92BC925297FD0183899489A589B689A4
:105300004789508D618D728D425051096109710933
:10531000481759076A077B0738F00197A109B109B7
:10532000838B948BA58BB68BA985BA8514968C91AB
:105330001497816014968C9308C0813009F4CBCD0A
:1053400061E070E080E090E006C0B401C50103C0F8
:10535000882349F2F5CF2A960FB6F894DEBF0FBE28
:10536000CDBFDF91CF911F910F91FF90EF90DF9014
:10537000CF90BF90AF909F908F907F906F905F90F5
:105380004F903F9008954F925F926F927F92AF92AD
:10539000BF92CF92DF92EF92FF920F931F93CF9322
:1053A000DF93EC0108811981CEA0DFA0E8A4F9A465
:1053B00080E2C80ED11CE11CF11CF8018081843010
:1053C00029F080E090E0A0E2B0E004C080E090E04E
:1053D000A0E0B0E1C816D906EA06FB0620F01EA63A
:1053E0001FA618AA19AA8EA59FA5A8A9B9A90097B2
:1053F000A105B10509F4AAC05B01B701A60151706E
:1054000066277727452B462B472B09F090C001963E
:10541000A11DB11D8EA79FA7A8ABB9AB4AA55BA5DF
:105420006CA57DA5F8014115510561057105C1F413
:1054300087819085A0E0B0E0B701A60135E07695C0
:105440006795579547953A95D1F7481759076A07D1
:105450007B0708F46CC01EA61FA618AA19AA76C05E
:10546000818592850197A0E0B0E02601370129E00F
:1054700076946794579447942A95D1F7842195217F
:10548000A621B721892B8A2B8B2B09F050C0CE0186
:105490000E941E1C2B013C016230710581059105A3
:1054A00010F482E056C08FEF48165806680678065A
:1054B00011F481E04EC0F8018789908DA18DB28DE5
:1054C000481659066A067B0628F1AB2821F24AA540
:1054D0005BA56CA57DA5CE010E9419272B013C017F
:1054E000611571058105910599F16130710581059D
:1054F0009105B9F28FEF4816580668067806C9F28A
:10550000B301A201C8010E94AD268111D2CF8D81C5
:1055100084608D834AA65BA66CA67DA6B301A2011A
:10552000C8010E949A176EA77FA788AB99ABCEA23D
:10553000DFA2E8A6F9A6E1E0DE22F7E3CF0ED11C58
:10554000C00ED11EDBAACAAA80E003C084E001C05D
:1055500087E0DF91CF911F910F91FF90EF90DF9047
:10556000CF90BF90AF907F906F905F904F900895D5
:10557000CF92DF92EF92FF920F931F93CF93DF931F
:10558000EC016B01E880F98040E050E0BA010E9434
:10559000C71D81112FC000E010E04EA55FA568A9CE
:1055A00079A9C7010E945E1B811124C0F701908177
:1055B000EAA9FBA9943031F490819095991F99271D
:1055C000991F07C0208191E0253E11F0211190E044
:1055D0009170992331F00F5F1F4F0C151D0519F4C1
:1055E0000CC000E010E061E070E0CE010E94C32931
:1055F000882399F2843009F487E0DF91CF911F91DD
:105600000F91FF90EF90DF90CF900895AF92BF92EF
:10561000CF92DF92EF92FF920F931F93CF93DF937E
:10562000EC0108811981CEA0DFA0E8A4F9A4FC0157
:10563000E05CFF4F40815181628173814F3F8FEF6A
:1056400058076807780729F485EEB82EAA24A39492
:1056500021C0CE010E94C71D81112BC0F5CFF801DA
:105660009081EAA9FBA99430F9F490819F77908307
:10567000F801A3824EA15FA168A579A54C155D052F
:105680006E057F05B0F460E070E0CE010E94C32992
:1056900081110CC04EA55FA568A979A9C8010E9417
:1056A0005E1B8823E1F202C0B082E2CF843009F4AD
:1056B00082E0DF91CF911F910F91FF90EF90DF90EB
:1056C000CF90BF90AF900895EF92FF920F931F93EA
:1056D000CF93DF93EC010E940A1B982F81115CC0CD
:1056E0008881833009F04EC08C81813009F04AC036
:1056F00040E052E060E070E07E0187E3E80EF11CDC
:10570000C7010E94821785E5FE01EB5CFD4F808397
:105710008AEA3196808382E58FAB88AF81E689AFD4
:1057200091E49AAF22E77B972083319620833196CC
:105730009083319680834B895C896D897E89CE0107
:10574000815E9D4F0E9451174F85588969897A89DA
:10575000CE018D5D9D4F0E9451178F8D98A1A9A1FB
:10576000BAA19C01AD012F5F3F4F4F4F5F4F2BAB55
:105770003CAB4DAB5EAB01E010E0B70189810E940C
:105780001A151C8240E050E060E089810E948B1570
:1057900091E0811101C090E0892FDF91CF911F919D
:1057A0000F91FF90EF900895CF92DF92EF92FF92CA
:1057B0000F931F93CF93DF938C01DC01ED91FC914C
:1057C000E584F684C7010E94D117F7018283938391
:1057D000C180F801E05CFF4F40815181628173819B
:1057E000C8010E94C71DC82FD12CD1E0C1112AC009
:1057F000D8019E964D915D916D917C91D1978D913F
:105800009C910E945E1BC82F81111CC040E250E099
:10581000B701F80182A993A90E94A81AD801ED91B5
:10582000FC91D383C114D10469F0B0E2EB0EF11CFA
:1058300060E070E0C8010E94C329C82FE1E0CE1AE1
:10584000D108D4CF8C2FC33008F082E0DF91CF9104
:105850001F910F91FF90EF90DF90CF900895CF921E
:10586000DF92EF92FF920F931F93CF93DF93EC01A0
:1058700088819981FC01058516854EA55FA568A9DB
:1058800079A90E945E1B811191C06AA97BA9FB01C5
:105890008081853809F063C040E250E0C8010E9471
:1058A000A81AF801E180F12CFFEFEF1AFF0AF5E0EA
:1058B000EE0CFF1CFA95E1F7C70180569109813083
:1058C000924008F04CC060E070E0CE010E94C32915
:1058D000843009F444C0811169C04EA55FA568A950
:1058E00079A9888199810E945E1B81115FC06AA994
:1058F0007BA9FB018081803C91F540E250E0C8012A
:1059000080960E94A81AF80183A190E08C966FE01F
:1059100070E00E945373E5E0660F771FEA95E1F7A8
:10592000E616F706E0F050E4C52ED12C60E070E0FA
:10593000CE010E94C329843091F0811137C04EA559
:105940005FA568A979A9888199810E945E1B811150
:105950002DC06AA97BA9FB018081813C11F082E006
:1059600025C0F0E6CF16F2E0DF0638F440E250E062
:10597000C8018C0D9D1D0E94A81A20E2C20ED11CE8
:10598000CE14DF0498F281E6C81682E0D80668F4E7
:10599000C8010E94D117F801238130E0322F22275D
:1059A0004281242B82179307D1F680E0DF91CF91BB
:1059B0001F910F91FF90EF90DF90CF9008954F923D
:1059C0005F927F928F929F92AF92BF92CF92DF921F
:1059D000EF92FF920F931F93CF93DF93EC016B0134
:1059E000E880F9800FEF1FEF84E0B82E9DE0792E5C
:1059F0004E0160E4860E911C4EA55FA568A979A9A9
:105A0000411551056105710509F4CFC0C7010E9418
:105A10005E1BB82E8111CBC0EAA9FBA98081882327
:105A200009F4CCC0D7019C91943019F5C114D1046C
:105A300021F0833809F0AFC0C6C0853809F0ABC08B
:105A40008EA19FA1A8A5B9A5FE01E05CFF4F8083B0
:105A50009183A283B383CE010E942F2C8111B1C008
:105A6000D7011D96ED91FC911E9784818F738C83D5
:105A7000AAC093859F739C83853E09F48BC08E32A8
:105A800009F488C021E030E0492F4F71483011F00F
:105A900020E030E02C153D0509F07CC09F3009F076
:105AA00068C086FF0EC00585182F1F7B4EA15FA121
:105AB00068A579A5D4014D935D936D937C9313975D
:105AC00002C0811367C08585081364C0D7011B9687
:105AD000AD90BC901C97838D90E0982F8827228DE5
